:020000040800F2
:1000000000500020BD170008C9160008D1160008CE
:10001000D9160008E1160008E916000800000000E3
:10002000000000000000000000000000F1160008C1
:10003000FD16000800000000091700081517000849
:10004000051800080518000805180008051800081C
:10005000051800080518000805180008051800080C
:1000600005180008051800080518000805180008FC
:1000700005180008051800080518000805180008EC
:1000800005180008051800080518000805180008DC
:1000900005180008051800080518000805180008CC
:1000A00005180008051800080518000805180008BC
:1000B0002117000805180008051800080518000891
:1000C000051800080518000805180008051800089C
:1000D000051800080518000805180008051800088C
:1000E0003517000805180008051800080000000072
:1000F0000000000000000000000000000000000000
:0C01000000000000000000005FF808F1A3
:10010C0010B5054C237833B9044B13B10448AFF345
:10011C0000800123237010BD7C0000200000000033
:10012C008443000808B5034B1BB103490348AFF3E4
:10013C00008008BD000000008000002084430008FF
:10014C0080B500AF944B1B78022B55D0022B62DC90
:10015C00002B02D0012B3BD05DE0002000F0E0FD35
:10016C000346002B52D08D4BDB688C4A43F48763DB
:10017C00D3608B4B1B78032B1ED0032B20DC012B65
:10018C0002D0022B0AD01BE0854B02221A70854B41
:10019C0000221A70844B01221A7015E0804B032246
:1001AC001A70824B1A78824B1A707E4B00221A708E
:1001BC007D4B00221A7007E0794B00221A7003E085
:1001CC00774B00221A7000BF734B01221A701DE08E
:1001DC00002000F0A5FD0346002B03D16E4B00223E
:1001EC001A7015E0002000F0B5FD0346002B0FD06F
:1001FC00694B02221A700BE0002000F091FD0346BF
:10020C00002B07D1644B00221A7003E000BF02E000
:10021C0000BF00E000BF604B5B78022B00F09780C2
:10022C00022B00F3A380002B02D0012B0BD09DE0FE
:10023C00012000F075FD0346002B00F09280564B18
:10024C0001225A708DE0012000F06AFD0346002B5C
:10025C0054D1534B1B78022B02D0032B1FD049E0F7
:10026C00504B1B785A1C534B83FB0231D317C91AC2
:10027C000B465B000B44D11ACAB24A4B1A704A4B5C
:10028C001B785A1C4B4B83FB0231D317C91A0B46F4
:10029C005B000B44D11ACAB2434B1A702AE0414B93
:1002AC001B785A1C434B83FB0231D317C91A0B46DC
:1002BC005B000B44D11ACAB23A4B1A70394B1B78FB
:1002CC00022B0BD0022B13DC002B02D0012B0AD0FB
:1002DC000EE0364B1A78364B1A700AE0364B1A7809
:1002EC00334B1A7005E0354B1A78314B1A7000E01D
:1002FC0000BF00BF284B00225A7034E0012000F0F0
:10030C0029FD0346002B2ED0254B1B78032B1AD12D
:10031C00244B1B78022B0BD0022B13DC002B02D0AE
:10032C00012B0AD00EE0224B1A78204B1A700AE0EF
:10033C001F4B1A78204B1A7005E01D4B1A781F4B77
:10034C001A7000E000BF144B02225A700BE001201F
:10035C0000F0E6FC0346002B07D10F4B00225A702D
:10036C0003E000BF02E000BF00E000BF0A4B9B7837
:10037C00022B50D0022B5DDC002B02D0012B1FD0A6
:10038C0058E0022000F0CCFC0346002B4DD0024B71
:10039C0001229A7049E000BF00000020000C0140CF
:1003AC009C0000209D000020030000200400002081
:1003BC00A0000020565555550500002006000020D1
:1003CC00022000F0ADFC0346002B1AD11A4B1B780F
:1003DC00032B12D1194B1B78012B08D1184B1A780F
:1003EC00184B1B789A4202D3154B00221A70144BEF
:1003FC001B780133DAB2124B1A70134B00229A702D
:10040C0015E0022000F0A6FC0346002B0FD00E4B8B
:10041C0002229A700BE0022000F082FC0346002BB3
:10042C0007D1094B00229A7003E000BF02E000BF25
:10043C0000E000BF00BF80BD9C0000209D0000209C
:10044C00A0000020040000200000002080B483B035
:10045C0000AF03460A46FB711346BB71FB79174A82
:10046C00A2FB0323DB08DAB2154B1A70FA79134B93
:10047C00A3FB0213D9080B469B000B445B00D31A59
:10048C00DAB20F4B5A70BB790C4AA2FB0323DB0880
:10049C00DAB20B4B9A70BA79084BA3FB0213D9084A
:1004AC000B469B000B445B00D31ADAB2044BDA7098
:1004BC0000BF0C37BD4680BC704700BFCDCCCCCC48
:1004CC009800002080B500AF544B1B78022B32D023
:1004DC00022B4BDC002B02D0012B16D046E0012264
:1004EC0020214F4801F0B9FC012208214C4801F0B1
:1004FC00B4FC4C4B1B78002B33D1484B01221A70A7
:10050C00494B1A78474B1A702BE0002220214448A3
:10051C0001F0A3FC01220821414801F09EFC414B53
:10052C001B78002B1FD13D4B02221A703F4B1A78BF
:10053C003C4B1A7017E001222021394801F08DFC48
:10054C0000220821364801F088FC364B1B78002B22
:10055C000BD1324B00221A70354B1A78314B1A7072
:10056C0003E000BF02E000BF00E000BF314B1B788E
:10057C00022B34D0022B4EDC002B02D0012B17D0D7
:10058C0049E001224FF48061254801F066FC01220C
:10059C001021234801F061FC274B1B78002B35D12F
:1005AC00244B01221A70204B1A78234B1A702DE021
:1005BC0000224FF480611A4801F04FFC01221021F7
:1005CC00174801F04AFC1C4B1B78002B20D1194B0F
:1005DC0002221A70154B1A78174B1A7018E0012268
:1005EC004FF480610E4801F038FC002210210C48B9
:1005FC0001F033FC104B1B78002B0BD10D4B002260
:10060C001A700B4B1A780C4B1A7003E000BF02E007
:10061C0000BF00E000BF00BF80BD00BF9D000020F8
:10062C00000C01409E000020060000200500002068
:10063C0004000020030000209F00002080B500AFC4
:10064C000F4B1B780F4A127811461846FFF7FEFE27
:10065C00FFF738FF0A4B1B78002B05D0084B1B7893
:10066C00013BDAB2064B1A70064B1B78002B05D0F7
:10067C00044B1B78013BDAB2024B1A7000BF80BDF1
:10068C009E0000209F00002080B500AF044B01228B
:10069C001A70044B01221A70FFF714FF00BF80BDC3
:1006AC009E0000209F00002080B500AF304B1B78CF
:1006BC00022B22D0022B58DC002B02D0012B38D07D
:1006CC0053E02C4B1B7819460120FFF7BFFE01228B
:1006DC002021294801F0C1FB01220821264801F004
:1006EC00BCFB01224FF48061234801F0B6FB0122D0
:1006FC001021214801F0B1FB38E01E4B1B78194644
:10070C000220FFF7A3FE002220211B4801F0A5FBCD
:10071C0001220821184801F0A0FB00224FF480614F
:10072C00154801F09AFB01221021134801F095FBAA
:10073C001CE0104B1B7819460320FFF787FE0122A3
:10074C0020210D4801F089FB002208210A4801F004
:10075C0084FB01224FF48061074801F07EFB0022EC
:10076C001021054801F079FB00E000BF00BF80BDFF
:10077C009D000020A0000020000C014080B500AFBF
:10078C00254B1B78032B41D801A252F823F000BF54
:10079C00AD070008ED0700080D0800081308000855
:1007AC001E4BDB681D4A43F48763D3601C4B1A78DD
:1007BC001C4B1B78D31ADAB21B4B1A70184B1A78D5
:1007CC001A4B1A70174B1A78194B1A70194B0022C6
:1007DC001A70194B01221A700F4B01221A7018E073
:1007EC00164B1B780133DAB2144B1A70134B1B786F
:1007FC0003F00103DBB2002B0AD0FFF71FFF07E069
:10080C00FFF742FF05E0FFF74FFF02E000BF00E0FB
:10081C0000BF00BF80BD00BF9C000020000C014049
:10082C000400002006000020050000209E0000208F
:10083C009F0000209D00002003000020A00000204D
:10084C0080B586B002AF0346FB7197F9073023F0F1
:10085C000F035BB243F00C035BB2DBB23B7397F953
:10086C00073023F00F035BB243F008035BB2DBB23B
:10087C007B73FB791B015BB243F00C035BB2DBB205
:10088C00BB73FB791B015BB243F008035BB2DBB2B9
:10089C00FB730A4B186807F10C024FF0FF330093FF
:1008AC000423422101F070FC0346002B01D00023ED
:1008BC0000E0012318461037BD4680BDA40000207F
:1008CC0080B586B002AF0346FB7197F9073023F071
:1008DC000F035BB243F00D035BB2DBB23B7397F9D2
:1008EC00073023F00F035BB243F009035BB2DBB2BA
:1008FC007B73FB791B015BB243F00D035BB2DBB284
:10090C00BB73FB791B015BB243F009035BB2DBB237
:10091C00FB730A4B186807F10C024FF0FF3300937E
:10092C000423422101F030FC0346002B01D00023AC
:10093C0000E0012318461037BD4680BDA4000020FE
:10094C0080B483B000AF03463960FB71FB79022B96
:10095C0014D0022B19DC002B02D0012B07D014E091
:10096C003B6810491A460B461B88138015E03B6800
:10097C000D491A460B461B8813800EE03B680B4949
:10098C001A460B461B88138007E03B6808491A4639
:10099C000B4603CB1060516000BF00BF0C37BD4647
:1009AC0080BC70479C430008A0430008A443000887
:1009BC00A843000880B500AF322000F081FF302042
:1009CC00FFF73EFF052000F07BFF3020FFF738FFDC
:1009DC00012000F075FF3020FFF732FF0A2000F0F5
:1009EC006FFF2020FFF72CFF0A2000F069FF282062
:1009FC00FFF726FF012000F063FF0820FFF720FF20
:100A0C00012000F05DFF0120FFF71AFF012000F02C
:100A1C0057FF012000F054FF0620FFF711FF0120C3
:100A2C0000F04EFF0C20FFF70BFF00BF80BD80B520
:100A3C0082B000AF786006E07B685A1C7A601B7845
:100A4C001846FFF73DFF7B681B78002BF4D100BFE5
:100A5C0000BF0837BD4680BD80B500AF0120FFF751
:100A6C00EFFE022000F02CFF00BF80BD80B584B0EB
:100A7C0000AF03460A46FB711346BB710023FB73A0
:100A8C00BB79132B01D90023BB71FB79002B03D14C
:100A9C00BB79803BFB7305E0FB79012B02D1BB7961
:100AAC00403BFB73FB7B1846FFF7CAFE00BF1037B9
:100ABC00BD4680BD80B588B000AFFFF7CDFF564B6B
:100ACC001B78FB61554B1B78032B79D0032B00F360
:100ADC009680012B02D0022B3AD090E0002100200E
:100AEC00FFF7C4FF4E48FFF7A2FF4E4B1B7807F1F0
:100AFC00140211461846FFF723FF00210120FFF7CF
:100B0C00B5FF494B1B7807F11402381D474903F018
:100B1C0031F83B1D1846FFF78AFF00233B71444B0D
:100B2C001B7807F1140211461846FFF709FF08213C
:100B3C000120FFF79BFF3F4B1B7807F11402381D78
:100B4C003A4903F017F83B1D1846FFF770FF5EE0BB
:100B5C00344B1B7807F1140211461846FFF7F0FED0
:100B6C0000210020FFF782FF3348FFF760FF0021D0
:100B7C000120FFF77BFF07F114023B1D2F4918469C
:100B8C0002F0F8FF3B1D1846FFF751FF284B1B786E
:100B9C0007F1140211461846FFF7D2FE00233B71F1
:100BAC000A210120FFF762FF07F114023B1D2449C3
:100BBC00184602F0DFFF3B1D1846FFF738FF26E012
:100BCC00184B1B7807F1140211461846FFF7B8FEB4
:100BDC0000210020FFF74AFF1A48FFF728FF0021E9
:100BEC000120FFF743FF07F11402381DFB6916497A
:100BFC0002F0C0FF3B1D1846FFF719FF07E000216C
:100C0C000020FFF733FF1148FFF711FF00BF00BFB3
:100C1C002037BD4680BD00BFA00000209C000020F6
:100C2C00B44300089D0000209E000020C043000833
:100C3C00030000209F000020C8430008D843000890
:100C4C00E0430008E8430008F843000808440008A3
:100C5C0090B583B000AF0023FB714AE0FA79FB79C1
:100C6C002849895C284AD154FB79284A52F8232018
:100C7C00FB79274931F81330FC791946104601F0FD
:100C8C00D5F803461A461F4B1A55FB791D4AD25C00
:100C9C00FB791D49CB5C9A4205D1FA79FB791A494B
:100CAC00895C1C4AD154FB791A4AD35C002B14D1B1
:100CBC00FB79194A32F81330632B09D8FB79164AA1
:100CCC0032F81320013291B2134A22F813100DE0BE
:100CDC00FB79124A0121D15408E0FB790E4A00211C
:100CEC0022F81310FB790D4A0021D154FB79013302
:100CFC00FB71FB79022BB1D900BF00BF0C37BD468D
:100D0C0090BD00BFA8000020AC0000200C0000200B
:100D1C001800002008000020B4000020B0000020C3
:100D2C0080B483B000AF0346FB71FB79022B01D971
:100D3C00002307E0FB79064AD35C002B0CBF012390
:100D4C000023DBB218460C37BD4680BC704700BF91
:100D5C000800002080B483B000AF0346FB71FB7920
:100D6C00022B01D9FF2307E0FB79064AD35C012B48
:100D7C000CBF01230023DBB218460C37BD4680BCE8
:100D8C00704700BFB000002080B582B000AF786023
:100D9C007B681B68B3F1804F03D100F063FAFFF757
:100DAC0057FF00BF0837BD4680BD000080B500AFBF
:100DBC002021024801F069F800BF80BD0008014005
:100DCC0080B500AF00F01AFD00F05EF800F042F9BB
:100DDC0000F016F900F09AF800F0C6F8234802F07B
:100DEC008BF900F011FAFFF7E5FD32223221204891
:100DFC0000F0F0FA4FF4FA724FF4FA711D4800F05B
:100E0C00E9FA4FF47A724FF47A711B4800F0E2FA67
:100E1C004FF4FA721421194800F0DCFA0020FFF7A5
:100E2C007FFF0346002B05D001222021144801F03E
:100E3C0014F804E000222021114801F00EF80120E2
:100E4C00FFF76EFF0346002B06D001224FF4007112
:100E5C000C4801F002F805E000224FF4007109483B
:100E6C0000F0FBFF00F0D4FAD8E700BF100100201F
:100E7C004D01000889070008C10A0008B90D0008D7
:100E8C00000801400010014080B590B000AF07F1A0
:100E9C00180328220021184602F08CFE3B1D00226C
:100EAC001A605A609A60DA601A610223BB610123EE
:100EBC00BB621023FB6202237B630023BB634FF4F2
:100ECC006013FB6307F11803184601F0B5FC0346E9
:100EDC00002B01D000F07EF90F237B600223BB6056
:100EEC00A023FB604FF480633B6100237B613B1DBF
:100EFC000221184601F022FF0346002B01D000F01E
:100F0C0069F900BF4037BD4680BD000080B500AF19
:100F1C00124B134A1A60114B124A5A600F4B0022A3
:100F2C009A600E4B0022DA600C4B4FF480421A612F
:100F3C000A4B00225A61094B00229A61074B00228E
:100F4C00DA61064B00221A62044800F0D9FF03460E
:100F5C00002B01D000F03EF900BF80BDBC0000208A
:100F6C0000540040A086010080B586B000AF07F1A8
:100F7C00080300221A605A609A60DA603B4600222D
:100F8C001A605A601D4B4FF080421A601B4B41F6A1
:100F9C003F725A60194B00229A60184B0922DA6092
:100FAC00164B00221A61154B00229A61134802F06D
:100FBC0053F80346002B01D000F00CF94FF480538A
:100FCC00BB6007F1080319460C4802F0D7F9034639
:100FDC00002B01D000F0FEF800233B6000237B6067
:100FEC003B461946054802F0B9FB0346002B01D0DD
:100FFC0000F0F0F800BF1837BD4680BD100100208E
:10100C0080B500AF114B124A1A60104B4FF4E1320D
:10101C005A600E4B00229A600C4B0022DA600B4B8C
:10102C0000221A61094B0C225A61084B00229A616A
:10103C00064B0022DA61054802F000FC0346002B47
:10104C0001D000F0C7F800BF80BD00BF58010020E0
:10105C000044004080B588B000AF07F110030022B7
:10106C001A605A609A60DA60554B9B69544A43F097
:10107C0010039361524B9B6903F01003FB60FB68F8
:10108C004F4B9B694E4A43F0200393614C4B9B6939
:10109C0003F02003BB60BB68494B9B69484A43F093
:1010AC0004039361464B9B6903F004037B607B68EC
:1010BC00434B9B69424A43F008039361404B9B6945
:1010CC0003F008033B603B68002240F27F213D485F
:1010DC0000F0C3FE002220213B4800F0BEFE00229F
:1010EC004FF23841394800F0B8FE4FF400533B61E1
:1010FC00374B7B610023BB6107F110031946314864
:10110C0000F010FD40F27F233B6101237B61002343
:10111C00BB610223FB6107F110031946294800F05B
:10112C0001FD20233B6101237B610023BB61022372
:10113C00FB6107F110031946234800F0F3FC4FF252
:10114C0038433B6101237B610023BB610223FB61BC
:10115C0007F1100319461D4800F0E4FC80233B61A5
:10116C0000237B610123BB6107F11003194615486D
:10117C0000F0D8FC4FF480733B6100237B610123AA
:10118C00BB6107F1100319460F4800F0CBFC40235C
:10119C003B6100237B610123BB6107F110031946FE
:1011AC000A4800F0BFFC00220021282000F083FC3C
:1011BC00282000F09CFC00BF2037BD4680BD00BF3E
:1011CC00001002400010014000080140000C0140DA
:1011DC000000111080B400AF72B600BF00BFFDE775
:1011EC0080B483B000AF78607B681B7C012B04D18A
:1011FC007B6800221A74012300E0002318460C3788
:10120C00BD4680BC7047000080B584B000AF144B65
:10121C001B68002B06D1124B00221A60104B0022C7
:10122C005A6018E00E4B1B68FB600023FB720AE04F
:10123C00FB687B60FB685B68FB60786802F0E4FB32
:10124C00FB7A0133FB72FA7A054B5B689A42EFD357
:10125C00034B00221A6000BF1037BD4680BD00BF93
:10126C00A001002080B400AF0B4B1B68002B0FD0EB
:10127C00094B1B689B68002B04D1074B1B68012290
:10128C001A7406E0044B1B689A68013A9A6000E0F5
:10129C0000BFBD4680BC7047A001002080B58AB05D
:1012AC0000AFF860B9607A603B60182002F0A4FBD4
:1012BC0003467B61464B5B68092B02D87B69002B8C
:1012CC0001D16E237FE07B69FA681A607B697A68CA
:1012DC009A607B693A68DA607B6900221A747B69D0
:1012EC00BA685A617B6900225A60394B1B68002B23
:1012FC0005D0374B1B689B687A689A4213D8344BDD
:10130C001B68002B07D0324B1B689968304B1B684D
:10131C007A688A1A9A602E4B1A687B695A602C4A32
:10132C007B69136048E000237B62294B1B683B629E
:10133C000023FB610023BB6129E03B6A9B687A6A4E
:10134C0013447B627A6A7B689A4218D93B6A9A6822
:10135C007B6AD21A7B681A447B699A603B6A9A68EA
:10136C007B699B68D21A3B6A9A607B693A6A5A60BD
:10137C00FB69002B11D0FB697A695A600DE03B6A5E
:10138C00FB613B6A5B683B62BB690133BB61104B21
:10139C005A68BB699A42D0D800E000BF3B6A002B68
:1013AC000AD1FB69002B07D07A687B6AD21A7B6959
:1013BC009A60FB697A695A60054B5B680133044A91
:1013CC0053607B695B6918462837BD4680BD00BFFA
:1013DC00A001002080B584B000AFF860B9607A60DD
:1013EC00094B5968BB68094AA2FB0323DA087B68DE
:1013FC000648A0FB0303DB08F868FFF74FFF034622
:10140C0018461037BD4680BDA0010020CDCCCCCCF9
:10141C0080B582B000AF154B1B68002B22D0134B4C
:10142C001B687B607868FFF7DBFE0346002B1AD045
:10143C007B681B6898477B685B69184600F018F856
:10144C000346002B0FD07B68DB68002B0BD07B682E
:10145C0018687B6859697B68DA687B68DB68FFF71A
:10146C001DFF00E000BF0837BD4680BDA001002075
:10147C0080B586B000AF78601D4B1B68002B01D186
:10148C006F2330E01A4B1B687B6100233B61002308
:10149C00FB6022E07B695B697A689A4215D13B69F3
:1014AC00002B04D07B695A683B695A6003E07B6966
:1014BC005B680F4A1360786902F0A6FA0C4B5B6804
:1014CC00013B0B4A536001230DE07B693B617B6957
:1014DC005B687B61FB680133FB60054B5B68FA68FA
:1014EC009A42D7D36F2318461837BD4680BD00BF2C
:1014FC00A001002080B485B000AF154B9B69144A45
:10150C0043F001039361124B9B6903F00103BB6031
:10151C00BB680F4BDB690E4A43F08053D3610C4B15
:10152C00DB6903F080537B607B680A4B5B68FB6074
:10153C00FB6823F0E063FB60FB6843F00073FB6027
:10154C00044AFB68536000BF1437BD4680BC70472B
:10155C00001002400000014080B58AB000AF7860F6
:10156C0007F1140300221A605A609A60DA607B68F3
:10157C001B681D4A934232D11C4B9B691B4A43F09A
:10158C0008039361194B9B6903F008033B613B69AA
:10159C004FF440737B611223BB6103233B6207F161
:1015AC0014031946124800F0BDFA124B5B687B62BB
:1015BC007B6A43F0E0637B627B6A43F002037B62ED
:1015CC000C4A7B6A5360094BDB69084A43F40013ED
:1015DC00D361064BDB6903F40013FB60FB6800BFAF
:1015EC002837BD4680BD00BF0054004000100240AB
:1015FC00000C01400000014080B584B000AF786061
:10160C007B681B68B3F1804F13D10C4BDB690B4A21
:10161C0043F00103D361094BDB6903F00103FB6069
:10162C00FB68002200211C2000F045FA1C2000F071
:10163C005EFA00BF1037BD4680BD00BF00100240EF
:10164C0080B588B000AF786007F1100300221A60F3
:10165C005A609A60DA607B681B68154A934223D102
:10166C00144BDB69134A43F40033D361114BDB6930
:10167C0003F40033FB60FB680E4B9B690D4A43F08F
:10168C00040393610B4B9B6903F00403BB60BB68C1
:10169C000C233B6102237B610223FB6107F11003E6
:1016AC001946054800F03EFA00BF2037BD4680BD04
:1016BC0000440040001002400008014080B400AF1C
:1016CC0000BFFDE780B400AF00BFFDE780B400AF02
:1016DC0000BFFDE780B400AF00BFFDE780B400AFF2
:1016EC0000BFFDE780B400AF00BFBD4680BC7047B3
:1016FC0080B400AF00BFBD4680BC704780B400AF63
:10170C0000BFBD4680BC704780B500AF00F0BCF890
:10171C0000BF80BD80B500AF024801F03FFD00BFA7
:10172C0080BD00BF1001002080B500AF4FF4005009
:10173C0000F0C4FB00BF80BD80B586B000AF786000
:10174C00144A154BD31A7B617B693B61134B1B68A5
:10175C00002B02D1114B124A1A60104B1A687B688D
:10176C0013443A699A4207D202F03CFA03460C221F
:10177C001A604FF0FF3309E0084B1B68FB60074B06
:10178C001A687B681344054A1360FB6818461837BF
:10179C00BD4680BD0050002000040000A8010020C0
:1017AC00F802002080B400AF00BFBD4680BC70477B
:1017BC00FFF7F8FF0B480C490C4A002302E0D45801
:1017CC00C4500433C4188C42F9D3094A094C002381
:1017DC0001E013600432A242FBD302F009FAFFF7D6
:1017EC00EFFA7047000000207C00002080440008C5
:1017FC007C000020F8020020FEE7000080B500AF5E
:10180C00084B1B68074A43F010031360032000F0D9
:10181C0047F9002000F008F8FFF76CFE002318468B
:10182C0080BD00BF0020024080B582B000AF786060
:10183C00124B1A68124B1B7819464FF47A73B3FB90
:10184C00F1F3B2FBF3F3184600F05FF90346002BFB
:10185C0001D001230EE07B680F2B0AD80022796897
:10186C004FF0FF3000F027F9064A7B681360002325
:10187C0000E0012318460837BD4680BD200000203B
:10188C00280000202400002080B400AF054B1B78FA
:10189C001A46054B1B681344034A136000BFBD4630
:1018AC0080BC704728000020AC01002080B400AF41
:1018BC00024B1B681846BD4680BC7047AC0100202B
:1018CC0080B584B000AF7860FFF7F0FFB8607B683C
:1018DC00FB60FB68B3F1FF3F05D00A4B1B781A463F
:1018EC00FB681344FB6000BFFFF7E0FF0246BB68D8
:1018FC00D31AFA689A42F7D800BF00BF1037BD461A
:10190C0080BD00BF2800002080B485B000AF786097
:10191C007B6803F00703FB600C4BDB68BB60BA68A9
:10192C004FF6FF031340BB60FB681A02BB681343FE
:10193C0043F0BF6343F40033BB60044ABB68D3601D
:10194C0000BF1437BD4680BC704700BF00ED00E0FF
:10195C0080B400AF044BDB681B0A03F00703184686
:10196C00BD4680BC704700BF00ED00E080B483B082
:10197C0000AF0346FB7197F90730002B0BDBFB79AB
:10198C0003F01F02064997F907305B09012000FAA2
:10199C0002F241F8232000BF0C37BD4680BC7047D3
:1019AC0000E100E080B483B000AF03463960FB7106
:1019BC0097F90730002B0ADB3B68DAB20C4997F930
:1019CC0007301201D2B20B4483F800230AE03B68C3
:1019DC00DAB20849FB7903F00F03043B1201D2B2CF
:1019EC000B441A7600BF0C37BD4680BC704700BF55
:1019FC0000E100E000ED00E080B489B000AFF860D9
:101A0C00B9607A60FB6803F00703FB61FB69C3F103
:101A1C000703042B28BF0423BB61FB690433062B8B
:101A2C0002D9FB69033B00E000237B614FF0FF32DE
:101A3C00BB6902FA03F3DA43BB681A407B699A402C
:101A4C004FF0FF317B6901FA03F3D9437B680B40FC
:101A5C00134318462437BD4680BC704780B582B00E
:101A6C0000AF78607B68013BB3F1807F01D3012329
:101A7C000FE00A4A7B68013B53600F214FF0FF30A7
:101A8C00FFF790FF054B00229A60044B07221A6067
:101A9C00002318460837BD4680BD00BF10E000E0AB
:101AAC0080B582B000AF78607868FFF72DFF00BF7B
:101ABC000837BD4680BD80B586B000AF0346B9601F
:101ACC007A60FB7300237B61FFF742FF78617A68D1
:101ADC00B9687869FFF790FF024697F90F30114605
:101AEC001846FFF75FFF00BF1837BD4680BD80B5B5
:101AFC0082B000AF0346FB7197F907301846FFF729
:101B0C0035FF00BF0837BD4680BD80B582B000AF41
:101B1C0078607868FFF7A2FF034618460837BD4681
:101B2C0080BD000080B48BB000AF786039600023BA
:101B3C007B6200233B6269E101227B6A02FA03F3B8
:101B4C00FB613B681B68FA691340BB61BA69FB69AE
:101B5C009A4240F058813B685B689A4A93425ED047
:101B6C00984A934275D8984A934258D0964A9342D1
:101B7C006FD8964A934252D0944A934269D8944A69
:101B8C0093424CD0924A934263D8924A934246D0A5
:101B9C00904A93425DD8122B2AD8122B59D801A205
:101BAC0052F823F02B1C0008051C0008171C000819
:101BBC00591C00085F1C00085F1C00085F1C000813
:101BCC005F1C00085F1C00085F1C00085F1C0008FD
:101BDC005F1C00085F1C00085F1C00085F1C0008ED
:101BEC005F1C00085F1C00080D1C0008211C00086D
:101BFC00794A934213D02CE03B68DB683B6229E0C6
:101C0C003B68DB6804333B6224E03B68DB680833E9
:101C1C003B621FE03B68DB680C333B621AE03B68BD
:101C2C009B68002B02D104233B6213E03B689B684A
:101C3C00012B05D108233B627B68FA691A6109E024
:101C4C0008233B627B68FA695A6103E000233B621C
:101C5C0000E000BFBB69FF2B01D87B6801E07B680B
:101C6C0004337B61BB69FF2B02D87B6A9B0002E0CB
:101C7C007B6A083B9B003B617B691A680F213B69BF
:101C8C0001FA03F3DB431A40396A3B6901FA03F3A7
:101C9C001A437B691A603B685B6803F08053002B26
:101CAC0000F0B1804D4B9B694C4A43F001039361AA
:101CBC004A4B9B6903F00103BB60BB68484A7B6AD3
:101CCC009B08023352F82330FB607B6A03F003035A
:101CDC009B000F2202FA03F3DB43FA681340FB600C
:101CEC007B68404A934213D07B683F4A93420DD0A5
:101CFC007B683E4A934207D07B683D4A934201D1B0
:101D0C00032306E0042304E0022302E0012300E0A5
:101D1C0000237A6A02F0030292009340FA6813439C
:101D2C00FB602F497B6A9B080233FA6841F8232039
:101D3C003B685B6803F48013002B06D02D4B9A682C
:101D4C002C49BB6913438B6006E02A4B9A68BB692C
:101D5C00DB43284913408B603B685B6803F400133A
:101D6C00002B06D0234BDA682249BB691343CB60A6
:101D7C0006E0204BDA68BB69DB431E491340CB609D
:101D8C003B685B6803F40033002B06D0194B5A6890
:101D9C001849BB6913434B6006E0164B5A68BB6984
:101DAC00DB43144913404B603B685B6803F480339E
:101DBC00002B21D00F4B1A680E49BB6913430B60E3
:101DCC0021E000BF00003210000031100000221092
:101DDC000000211000001210000011100010024031
:101DEC000000014000080140000C014000100140BF
:101DFC0000140140000401400B4B1A68BB69DB4323
:101E0C00094913400B607B6A01337B623B681A689B
:101E1C007B6A22FA03F3002B7FF48EAE00BF00BF67
:101E2C002C37BD4680BC70470004014080B485B09F
:101E3C0000AF78600B467B807B689A687B88134088
:101E4C00002B02D00123FB7301E00023FB73FB7B0F
:101E5C0018461437BD4680BC704780B483B000AFC1
:101E6C0078600B467B8013467B707B78002B03D00D
:101E7C007A887B681A6103E07B881A047B681A6194
:101E8C0000BF0C37BD4680BC704780B485B000AF36
:101E9C0078600B467B807B68DB68FB607A88FB682C
:101EAC0013401A04FB68D9437B880B401A437B68A8
:101EBC001A6100BF1437BD4680BC704780B582B034
:101ECC0000AF0346FB80084B5A69FB881340002B7C
:101EDC0006D0054AFB885361FB88184600F006F8CB
:101EEC0000BF0837BD4680BD0004014080B483B0FC
:101EFC0000AF0346FB8000BF0C37BD4680BC70476B
:101F0C0080B584B000AF78607B68002B01D10123D1
:101F1C002BE17B6893F83D30DBB2002B06D17B685C
:101F2C00002283F83C207868FFF716FB7B6824229C
:101F3C0083F83D207B681B681A687B681B6822F05D
:101F4C0001021A607B681B681A687B681B6842F484
:101F5C0000421A607B681B681A687B681B6822F455
:101F6C0000421A6001F032F8F8607B685B68814AC5
:101F7C00934207D8FB68804A934294BF0123002305
:101F8C00DBB206E0FB687D4A934294BF0123002339
:101F9C00DBB2002B01D00123E7E0FB68784AA2FBFF
:101FAC0003239B0CBB607B681B685B6823F03F01C1
:101FBC007B681B68BA680A435A607B681B681B6A9B
:101FCC0023F03F017B685B686A4A934202D8BB6886
:101FDC00013309E0BB684FF4967202FB03F3694AC4
:101FEC00A2FB03239B0901337A6812680B4313622B
:101FFC007B681B68DB6923F44F4222F0FF027B688D
:10200C005B685C498B4219D8FB68591E7B685B681E
:10201C005B00B1FBF3F3591C40F6FC730B40002B37
:10202C000AD0FB68591E7B685B685B00B1FBF3F35D
:10203C000133C3F30B0351E004234FE07B689B682F
:10204C00002B11D1FB68581E7B6859680B465B004E
:10205C000B44B0FBF3F30133C3F30B03002B0CBFA6
:10206C0001230023DBB212E0FB68581E7B68596821
:10207C000B469B000B4499000B44B0FBF3F301336C
:10208C00C3F30B03002B0CBF01230023DBB2002B8B
:10209C0001D0012322E07B689B68002B0ED1FB68EA
:1020AC00581E7B6859680B465B000B44B0FBF3F37E
:1020BC000133C3F30B0343F400430FE0FB68581EDA
:1020CC007B6859680B469B000B4499000B44B0FB92
:1020DC00F3F30133C3F30B0343F44043796809680A
:1020EC001343CB617B681B681B6823F0C0017B68C2
:1020FC00DA697B681B6A1A437B681B680A431A609F
:10210C007B681B689B6823F4034323F0FF037A6806
:10211C0011697A68D26811437A6812680B4393602C
:10212C007B681B68DB6823F0FF017B685A697B685E
:10213C009B691A437B681B680A43DA607B681B68DF
:10214C001A687B681B6842F001021A607B680022E7
:10215C001A647B68202283F83D207B6800221A6376
:10216C007B68002283F83E20002318461037BD46BA
:10217C0080BD00BFA08601007F841E00FF083D00CB
:10218C0083DE1B43D34D621080B588B002AFF8607C
:10219C007A601A460B467B8113463B81FFF786FB20
:1021AC007861FB6893F83D30DBB2202B40F0E08087
:1021BC007B690093192301227049F86800F064F9D7
:1021CC000346002B01D00223D3E0FB6893F83C308C
:1021DC00012B01D10223CCE0FB68012283F83C20C7
:1021EC00FB681B681B6803F00103012B07D0FB681D
:1021FC001B681A68FB681B6842F001021A60FB68D6
:10220C001B681A68FB681B6822F400621A60FB6882
:10221C00212283F83D20FB68102283F83E20FB68C6
:10222C0000221A64FB687A685A62FB683A895A85FC
:10223C00FB685B8D9AB2FB681A85FB68504ADA62C0
:10224C0079897B693A6AF86800F09CF80346002BA0
:10225C0001D001238DE000233B61FB681B685B69A7
:10226C003B61FB681B689B693B613B6966E07A6973
:10227C00396AF86800F022FA0346002B0DD0FB688F
:10228C001B6C042B07D1FB681B681A68FB681B6866
:10229C0042F400721A6001236BE0FB685B6A1A78E7
:1022AC00FB681B681A61FB685B6A5A1CFB685A6204
:1022BC00FB685B8D9BB2013B9AB2FB685A85FB684D
:1022CC001B8D013B9AB2FB681A85FB681B685B6926
:1022DC0003F00403042B1BD1FB681B8D002B17D0C0
:1022EC00FB685B6A1A78FB681B681A61FB685B6A9F
:1022FC005A1CFB685A62FB685B8D9BB2013B9AB21D
:10230C00FB685A85FB681B8D013B9AB2FB681A85EA
:10231C007A69396AF86800F019FA0346002B0DD077
:10232C00FB681B6C042B07D1FB681B681A68FB68E5
:10233C001B6842F400721A6001231AE0FB681B8DC3
:10234C00002B94D1FB681B681A68FB681B6842F46D
:10235C0000721A60FB68202283F83D20FB68002283
:10236C0083F83E20FB68002283F83C20002300E029
:10237C00022318461837BD4680BD00BF020010006E
:10238C000000FFFF80B588B002AFF8607A603B6058
:10239C000B467B81FB68DB6A7B617B69082B06D073
:1023AC007B69012B03D07B6913F5803F08D1FB6857
:1023BC001B681A68FB681B6842F480721A600BE099
:1023CC00FB681B6B122B07D1FB681B681A68FB6838
:1023DC001B6842F480721A603B6800937B68002291
:1023EC004FF00111F86800F04FF80346002B0DD0A8
:1023FC00FB681B681B6803F48073B3F5807F03D103
:10240C00FB684FF400721A64032335E0FB681B6908
:10241C00B3F5804F08D17B89DBB21A46FB681B6889
:10242C0002F0FE021A611BE07B89DB11DBB203F0C8
:10243C000603DBB263F00F03DAB2FB681B681A61A8
:10244C003B687A680E49F86800F098F80346002B50
:10245C0001D0012310E07B89DAB2FB681B681A619A
:10246C003B687A680749F86800F088F80346002B47
:10247C0001D0012300E0002318461837BD4680BD6B
:10248C00080001000200010080B584B000AFF860C4
:10249C00B9603B601346FB7148E03B68B3F1FF3F0A
:1024AC0044D0FFF703FA0246BB69D31A3A689A4242
:1024BC0002D33B68002B39D1BB681B0CDBB2012B60
:1024CC000DD1FB681B685B69DA43BB6813409BB298
:1024DC00002B0CBF01230023DBB21A460CE0FB6877
:1024EC001B689B69DA43BB6813409BB2002B0CBF83
:1024FC0001230023DBB21A46FB799A4216D1FB6802
:10250C0000221A63FB68202283F83D20FB6800221E
:10251C0083F83E20FB681B6C43F02002FB681A64B6
:10252C00FB68002283F83C20012323E0BB681B0CD2
:10253C00DBB2012B0DD1FB681B685B69DA43BB680E
:10254C0013409BB2002B0CBF01230023DBB21A46B5
:10255C000CE0FB681B689B69DA43BB6813409BB2B9
:10256C00002B0CBF01230023DBB21A46FB799A42E5
:10257C0093D0002318461037BD4680BD80B584B07B
:10258C0000AFF860B9607A603B6071E0FB681B6873
:10259C005B6903F48063B3F5806F23D1FB681B6820
:1025AC001A68FB681B6842F400721A60FB681B68AF
:1025BC006FF480625A61FB6800221A63FB68202268
:1025CC0083F83D20FB68002283F83E20FB681B6CDF
:1025DC0043F00402FB681A64FB68002283F83C2079
:1025EC00012367E07B68B3F1FF3F41D0FFF75EF951
:1025FC0002463B68D31A7A689A4202D37B68002B56
:10260C0036D1BB681B0CDBB2012B0CD1FB681B68F1
:10261C005B69DA43BB6813409BB2002B14BF0123E8
:10262C000023DBB20BE0FB681B689B69DA43BB68D9
:10263C0013409BB2002B14BF01230023DBB2002BF1
:10264C0016D0FB6800221A63FB68202283F83D2019
:10265C00FB68002283F83E20FB681B6C43F02002D1
:10266C00FB681A64FB68002283F83C20012321E0FC
:10267C00BB681B0CDBB2012B0CD1FB681B685B69C4
:10268C00DA43BB6813409BB2002B14BF0123002319
:10269C00DBB20BE0FB681B689B69DA43BB68134039
:1026AC009BB2002B14BF01230023DBB2002B7FF461
:1026BC006DAF002318461037BD4680BD80B584B081
:1026CC0000AFF860B9607A6034E0F86800F086F822
:1026DC000346002B01D0012334E0BB68B3F1FF3F6C
:1026EC0028D0FFF7E3F802467B68D31ABA689A42FF
:1026FC0002D3BB68002B1DD1FB681B685B6903F020
:10270C008003802B16D0FB6800221A63FB68202202
:10271C0083F83D20FB68002283F83E20FB681B6C8D
:10272C0043F02002FB681A64FB68002283F83C200B
:10273C00012307E0FB681B685B6903F08003802BB7
:10274C00C3D1002318461037BD4680BD80B584B078
:10275C0000AFF860B9607A6034E0F86800F03EF8D9
:10276C000346002B01D0012334E0BB68B3F1FF3FDB
:10277C0028D0FFF79BF802467B68D31ABA689A42B6
:10278C0002D3BB68002B1DD1FB681B685B6903F08F
:10279C000403042B16D0FB6800221A63FB6820226A
:1027AC0083F83D20FB68002283F83E20FB681B6CFD
:1027BC0043F02002FB681A64FB68002283F83C207B
:1027CC00012307E0FB681B685B6903F00403042B1F
:1027DC00C3D1002318461037BD4680BD80B483B0EA
:1027EC0000AF78607B681B685B6903F48063B3F5AA
:1027FC00806F1BD17B681B686FF480625A617B68A9
:10280C0000221A637B68202283F83D207B6800221B
:10281C0083F83E207B681B6C43F004027B681A64CF
:10282C007B68002283F83C20012300E0002318463B
:10283C000C37BD4680BC704780B586B000AF786061
:10284C007B68002B01D1012372E27B681B6803F0CB
:10285C000103002B00F08780924B5B6803F00C03A4
:10286C00042B0CD08F4B5B6803F00C03082B12D19C
:10287C008C4B5B6803F48033B3F5803F0BD1894BF1
:10288C001B6803F40033002B6CD07B685B68002B57
:10289C0068D101234CE27B685B68B3F5803F06D1BD
:1028AC00804B1B687F4A43F4803313602EE07B68B7
:1028BC005B68002B0CD17B4B1B687A4A23F480336A
:1028CC001360784B1B68774A23F4802313601DE058
:1028DC007B685B68B3F5A02F0CD1724B1B68714AF7
:1028EC0043F4802313606F4B1B686E4A43F48033B0
:1028FC0013600BE06B4B1B686A4A23F48033136044
:10290C00684B1B68674A23F4802313607B685B6801
:10291C00002B13D0FEF7CAFF386108E0FEF7C6FFA4
:10292C0002463B69D31A642B01D9032300E25D4BA9
:10293C001B6803F40033002BF0D014E0FEF7B6FF55
:10294C00386108E0FEF7B2FF02463B69D31A642BEC
:10295C0001D90323ECE1534B1B6803F40033002B28
:10296C00F0D100E000BF7B681B6803F00203002B72
:10297C0063D04C4B5B6803F00C03002B0BD0494B22
:10298C005B6803F00C03082B1CD1464B5B6803F40B
:10299C008033002B16D1434B1B6803F00203002B32
:1029AC0005D07B681B69012B01D00123C0E13D4B95
:1029BC001B6823F0F8027B685B69DB003949134321
:1029CC000B603AE07B681B69002B20D0364B012250
:1029DC001A60FEF76BFF386108E0FEF767FF0246EE
:1029EC003B69D31A022B01D90323A1E12D4B1B68A0
:1029FC0003F00203002BF0D02A4B1B6823F0F802E3
:102A0C007B685B69DB00274913430B6015E0264BA1
:102A1C0000221A60FEF74AFF386108E0FEF746FF15
:102A2C0002463B69D31A022B01D9032380E11D4BCB
:102A3C001B6803F00203002BF0D17B681B6803F0CA
:102A4C000803002B3AD07B689B69002B19D0174BDD
:102A5C0001221A60FEF72AFF386108E0FEF726FF14
:102A6C0002463B69D31A022B01D9032360E10D4BBB
:102A7C005B6A03F00203002BF0D0012000F0CEFAC9
:102A8C001CE00A4B00221A60FEF710FF38610FE0C1
:102A9C00FEF70CFF02463B69D31A022B08D903231D
:102AAC0046E100BF00100240000042428004424256
:102ABC00924B5B6A03F00203002BE9D17B681B6825
:102ACC0003F00403002B00F0A6800023FB758B4B56
:102ADC00DB6903F08053002B0DD1884BDB69874AEF
:102AEC0043F08053D361854BDB6903F08053BB60AB
:102AFC00BB680123FB75824B1B6803F48073002BAE
:102B0C0018D17F4B1B687E4A43F480731360FEF729
:102B1C00CDFE386108E0FEF7C9FE02463B69D31AC8
:102B2C00642B01D9032303E1754B1B6803F48073F9
:102B3C00002BF0D07B68DB68012B06D16F4B1B6A36
:102B4C006E4A43F0010313622DE07B68DB68002BB7
:102B5C000CD16A4B1B6A694A23F001031362674B61
:102B6C001B6A664A23F0040313621CE07B68DB6873
:102B7C00052B0CD1614B1B6A604A43F004031362B2
:102B8C005E4B1B6A5D4A43F0010313620BE05B4B27
:102B9C001B6A5A4A23F001031362584B1B6A574AAB
:102BAC0023F0040313627B68DB68002B15D0FEF75F
:102BBC007DFE38610AE0FEF779FE02463B69D31AC6
:102BCC0041F28832934201D90323B1E04B4B1B6A8B
:102BDC0003F00203002BEED014E0FEF767FE386121
:102BEC000AE0FEF763FE02463B69D31A41F28832D3
:102BFC00934201D903239BE0404B1B6A03F0020371
:102C0C00002BEED1FB7D012B05D13C4BDB693B4A04
:102C1C0023F08053D3617B68DB69002B00F0878045
:102C2C00364B5B6803F00C03082B61D07B68DB69C7
:102C3C00022B46D1334B00221A60FEF737FE386167
:102C4C0008E0FEF733FE02463B69D31A022B01D98A
:102C5C0003236DE0294B1B6803F00073002BF0D1AC
:102C6C007B681B6AB3F5803F08D1244B5B6823F467
:102C7C0000327B689B68214913434B601F4B5B6898
:102C8C0023F474127B68196A7B685B6A0B431B49DB
:102C9C0013434B601B4B01221A60FEF707FE386191
:102CAC0008E0FEF703FE02463B69D31A022B01D95A
:102CBC0003233DE0114B1B6803F00073002BF0D095
:102CCC0035E0104B00221A60FEF7F0FD386108E089
:102CDC00FEF7ECFD02463B69D31A022B01D9032304
:102CEC0026E0064B1B6803F00073002BF0D11EE0AE
:102CFC007B68DB69012B07D1012319E0001002402E
:102D0C0000700040600042420B4B5B68FB60FB684C
:102D1C0003F480327B681B6A9A4206D1FB6803F489
:102D2C0070127B685B6A9A4201D0012300E0002399
:102D3C0018461837BD4680BD0010024080B584B0DF
:102D4C0000AF786039607B68002B01D10123D0E0A3
:102D5C006A4B1B6803F007033A689A4210D9674B19
:102D6C001B6823F0070265493B6813430B60634BF8
:102D7C001B6803F007033A689A4201D00123B8E0BC
:102D8C007B681B6803F00203002B20D07B681B6858
:102D9C0003F00403002B05D0594B5B68584A43F4ED
:102DAC00E06353607B681B6803F00803002B05D0BD
:102DBC00534B5B68524A43F460535360504B5B680F
:102DCC0023F0F0027B689B684D4913434B607B6892
:102DDC001B6803F00103002B40D07B685B68012B60
:102DEC0007D1474B1B6803F40033002B15D101238B
:102DFC007FE07B685B68022B07D1414B1B6803F0BB
:102E0C000073002B09D1012373E03D4B1B6803F0C9
:102E1C000203002B01D101236BE0394B5B6823F0DB
:102E2C0003027B685B68364913434B60FEF73EFD3B
:102E3C00F8600AE0FEF73AFD0246FB68D31A41F24D
:102E4C008832934201D9032353E02D4B5B6803F086
:102E5C000C027B685B689B009A42EBD1274B1B688A
:102E6C0003F007033A689A4210D2244B1B6823F0F4
:102E7C00070222493B6813430B60204B1B6803F08D
:102E8C0007033A689A4201D0012332E07B681B6841
:102E9C0003F00403002B08D0194B5B6823F4E062A9
:102EAC007B68DB68164913434B607B681B6803F037
:102EBC000803002B09D0124B5B6823F460527B682B
:102ECC001B69DB000E4913434B6000F021F80246EE
:102EDC000B4B5B681B0903F00F030A49CB5C22FA0E
:102EEC0003F3094A1360094B1B681846FEF79CFC58
:102EFC00002318461037BD4680BD00BF002002409D
:102F0C00001002401844000820000020240000207B
:102F1C0080B487B000AF0023FB600023BB600023AC
:102F2C007B6100237B6000233B611E4B5B68FB6075
:102F3C00FB6803F00C03042B02D0082B03D027E012
:102F4C00194B3B6127E0FB689B0C03F00F03174AFE
:102F5C00D35C7B60FB6803F48033002B10D0114BE7
:102F6C005B685B0C03F00103114AD35CBB607B68AC
:102F7C000D4A03FB02F2BB68B2FBF3F37B6104E086
:102F8C007B680C4A02FB03F37B617B693B6102E0CB
:102F9C00054B3B6100BF3B6918461C37BD4680BCE6
:102FAC00704700BF0010024000127A003044000845
:102FBC004044000800093D0080B400AF024B1B6880
:102FCC001846BD4680BC70472000002080B500AF7D
:102FDC00FFF7F2FF0246054B5B681B0A03F0070381
:102FEC000349CB5C22FA03F3184680BD0010024063
:102FFC002844000880B500AFFFF7DEFF0246054B02
:10300C005B68DB0A03F007030349CB5C22FA03F38A
:10301C00184680BD001002402844000880B485B0DA
:10302C0000AF78600A4B1B680A4AA2FB03235B0AB9
:10303C007A6802FB03F3FB6000BFFB685A1EFA6060
:10304C00002BF9D100BF00BF1437BD4680BC7047C0
:10305C0020000020D34D621080B582B000AF7860A4
:10306C007B68002B01D1012341E07B6893F83D3054
:10307C00DBB2002B06D17B68002283F83C207868F9
:10308C00FEF7BAFA7B68022283F83D207B681A6847
:10309C007B6804331946104600F05CFA7B68012209
:1030AC0083F846207B68012283F83E207B6801224E
:1030BC0083F83F207B68012283F840207B68012243
:1030CC0083F841207B68012283F842207B6801222F
:1030DC0083F843207B68012283F844207B6801221B
:1030EC0083F845207B68012283F83D200023184695
:1030FC000837BD4680BD000080B485B000AF786055
:10310C007B6893F83D30DBB2012B01D001233AE010
:10311C007B68022283F83D207B681B68DA687B6839
:10312C001B6842F00102DA607B681B68184A934204
:10313C000ED07B681B68B3F1804F09D07B681B688D
:10314C00144A934204D07B681B68134A934211D1F2
:10315C007B681B689B6803F00703FB60FB68062B0E
:10316C0010D07B681B681A687B681B6842F00102F0
:10317C001A6007E07B681B681A687B681B6842F062
:10318C0001021A60002318461437BD4680BC7047F4
:10319C00002C0140000400400008004080B584B0C1
:1031AC0000AF78607B681B68DB68FB607B681B6822
:1031BC001B69BB60BB6803F00203002B20D0FB68CB
:1031CC0003F00203002B1BD07B681B686FF002021C
:1031DC001A617B6801221A777B681B689B6903F074
:1031EC000303002B03D0786800F098F905E07868A9
:1031FC0000F08BF9786800F09AF97B6800221A7756
:10320C00BB6803F00403002B20D0FB6803F004031D
:10321C00002B1BD07B681B686FF004021A617B6863
:10322C0002221A777B681B689B6903F44073002B9E
:10323C0003D0786800F072F905E0786800F065F961
:10324C00786800F074F97B6800221A77BB6803F089
:10325C000803002B20D0FB6803F00803002B1BD0C5
:10326C007B681B686FF008021A617B6804221A776E
:10327C007B681B68DB6903F00303002B03D07868C1
:10328C0000F04CF905E0786800F03FF9786800F040
:10329C004EF97B6800221A77BB6803F01003002BF1
:1032AC0020D0FB6803F01003002B1BD07B681B683D
:1032BC006FF010021A617B6808221A777B681B6812
:1032CC00DB6903F44073002B03D0786800F026F917
:1032DC0005E0786800F019F9786800F028F97B6847
:1032EC0000221A77BB6803F00103002B0CD0FB689B
:1032FC0003F00103002B07D07B681B686FF0010201
:10330C001A617868FDF740FDBB6803F08003002B61
:10331C000CD0FB6803F08003002B07D07B681B6884
:10332C006FF080021A61786800F07FFABB6803F0D6
:10333C004003002B0CD0FB6803F04003002B07D09C
:10334C007B681B686FF040021A61786800F0F8F82F
:10335C00BB6803F02003002B0CD0FB6803F02003A8
:10336C00002B07D07B681B686FF020021A6178680D
:10337C0000F052FA00BF1037BD4680BD80B584B056
:10338C0000AF786039600023FB737B6893F83C30A6
:10339C00012B01D10223B4E07B68012283F83C208D
:1033AC007B68022283F83D207B681B689B68BB60AE
:1033BC00BB6823F07703BB60BB6823F47F43BB601F
:1033CC007B681B68BA689A603B681B68B3F5005F42
:1033DC003ED0B3F5005F00F28780B3F5805F00F05C
:1033EC008680B3F5805F7FD8702B1AD0702B7BD87A
:1033FC00602B50D0602B77D8502B3CD0502B73D8EF
:10340C00402B58D0402B6FD8302B64D0302B6BD83E
:10341C00202B60D0202B67D8002B5CD0102B5AD0DF
:10342C0062E07B6818683B6899683B685A683B683F
:10343C00DB6800F074F97B681B689B68BB60BB6839
:10344C0043F07703BB607B681B68BA689A604FE0F7
:10345C007B6818683B6899683B685A683B68DB680E
:10346C0000F05DF97B681B689A687B681B6842F406
:10347C0080429A603CE07B6818683B6859683B68FE
:10348C00DB681A4600F0D4F87B681B68502118469C
:10349C0000F02BF92CE07B6818683B6859683B6896
:1034AC00DB681A4600F0F2F87B681B68602118464E
:1034BC0000F01BF91CE07B6818683B6859683B6896
:1034CC00DB681A4600F0B4F87B681B68402118468C
:1034DC0000F00BF90CE07B681A683B681B68194616
:1034EC00104600F002F903E00123FB7300E000BF7B
:1034FC007B68012283F83D207B68002283F83C2006
:10350C00FB7B18461037BD4680BD80B483B000AF3E
:10351C00786000BF0C37BD4680BC704780B483B068
:10352C0000AF786000BF0C37BD4680BC704780B4DC
:10353C0083B000AF786000BF0C37BD4680BC7047CD
:10354C0080B483B000AF786000BF0C37BD4680BC40
:10355C007047000080B485B000AF786039607B683C
:10356C001B68FB607B682F4A93420BD07B68B3F1DE
:10357C00804F07D07B682C4A934203D07B682B4A40
:10358C00934208D1FB6823F07003FB603B685B68D7
:10359C00FA681343FB607B68224A93420BD07B682A
:1035AC00B3F1804F07D07B681F4A934203D07B68EE
:1035BC001E4A934208D1FB6823F44073FB603B68BE
:1035CC00DB68FA681343FB60FB6823F080023B68FE
:1035DC005B691343FB607B68FA681A603B689A6806
:1035EC007B68DA623B681A687B689A627B680D4A72
:1035FC00934203D13B681A697B681A637B6801228A
:10360C005A617B681B6903F00103002B05D07B68B2
:10361C001B6923F001027B681A6100BF1437BD4699
:10362C0080BC7047002C01400004004000080040A2
:10363C0080B487B000AFF860B9607A60FB681B6A31
:10364C007B61FB681B6A23F00102FB681A62FB6852
:10365C009B693B613B6923F0F0033B617B681B0179
:10366C003A6913433B617B6923F00A037B617A69F6
:10367C00BB6813437B61FB683A699A61FB687A69A2
:10368C001A6200BF1C37BD4680BC704780B487B03F
:10369C0000AFF860B9607A60FB681B6A7B61FB68FD
:1036AC001B6A23F01002FB681A62FB689B693B6182
:1036BC003B6923F470433B617B681B033A691343FA
:1036CC003B617B6923F0A0037B61BB681B017A69BA
:1036DC0013437B61FB683A699A61FB687A691A62E9
:1036EC0000BF1C37BD4680BC704780B485B000AFAE
:1036FC00786039607B689B68FB60FB6823F0700323
:10370C00FB603A68FB68134343F00703FB607B687C
:10371C00FA689A6000BF1437BD4680BC704780B40D
:10372C0087B000AFF860B9607A603B60FB689B685B
:10373C007B617B6923F47F437B613B681A027B6866
:10374C001A43BB6813437A6913437B61FB687A693C
:10375C009A6000BF1C37BD4680BC704780B485B0F2
:10376C0000AF786039607B6893F83C30012B01D155
:10377C00022346E07B68012283F83C207B6802220E
:10378C0083F83D207B681B685B68FB607B681B686B
:10379C009B68BB60FB6823F07003FB603B681B6895
:1037AC00FA681343FB607B681B68FA685A607B6895
:1037BC001B68164A93420ED07B681B68B3F1804F8E
:1037CC0009D07B681B68124A934204D07B681B6843
:1037DC00104A93420CD1BB6823F08003BB603B685A
:1037EC005B68BA681343BB607B681B68BA689A60F5
:1037FC007B68012283F83D207B68002283F83C2003
:10380C00002318461437BD4680BC7047002C01407D
:10381C00000400400008004080B483B000AF786022
:10382C0000BF0C37BD4680BC704780B483B000AF7E
:10383C00786000BF0C37BD4680BC704780B582B045
:10384C0000AF78607B68002B01D1012342E07B68DC
:10385C0093F84130DBB2002B06D17B68002283F851
:10386C0040207868FDF7ECFE7B68242283F8412029
:10387C007B681B68DA687B681B6822F40052DA608C
:10388C00786800F02BF87B681B681A697B681B68EA
:10389C0022F490421A617B681B685A697B681B682A
:1038AC0022F02A025A617B681B68DA687B681B6805
:1038BC0042F40052DA607B6800225A647B68202252
:1038CC0083F841207B68202283F842207B68002209
:1038DC005A63002318460837BD4680BD80B584B0B6
:1038EC0000AF78607B681B681B6923F440517B68D0
:1038FC00DA687B681B680A431A617B689A687B6884
:10390C001B691A437B685B691343BB607B681B684C
:10391C00DB6823F4B05323F00C037A681268B9689F
:10392C000B43D3607B681B685B6923F440717B6835
:10393C009A697B681B680A435A617B681B682C4A2E
:10394C00934203D1FFF756FBF86002E0FFF73EFB12
:10395C00F860FA6813469B0013449A001A447B687B
:10396C005B689B00B2FBF3F3224AA2FB03235B09C7
:10397C001901FA6813469B0013449A001A447B6899
:10398C005B689B00B2FBF3F21A4BA3FB02035B09CF
:10399C00642000FB03F3D31A1B013233154AA2FB3C
:1039AC0003235B0903F0F0031944FA6813469B00E8
:1039BC0013449A001A447B685B689B00B2FBF3F2D9
:1039CC000C4BA3FB02035B09642000FB03F3D31A2B
:1039DC001B013233074AA2FB03235B0903F00F02DE
:1039EC007B681B680A449A6000BF1037BD4680BDD7
:1039FC00003801401F85EB51024B0146186800F05E
:103A0C002DB800BF2C000020024B0146186800F0B6
:103A1C0015B900BF2C00002070B50F4E0C46316854
:103A2C00054611B900F0CEF830602146284600F06A
:103A3C00C9F8431C03D14FF0FF34204670BDC41CA1
:103A4C0024F00304A042F8D0211A284600F0BAF85A
:103A5C000130F2D1EFE700BFB00100202DE9F843AF
:103A6C00CD1C25F0030508350C2D38BF0C25002D79
:103A7C00064601DBA94204D90C2333600020BDE8C3
:103A8C00F883DFF8D48000F069F8D8F800301C46D1
:103A9C0044BB29463046FFF7BFFF431C044658D1B0
:103AAC00D8F800402746002F43D1002C4BD0236878
:103ABC003946304604EB030900F084F8814542D1C5
:103ACC00216830466D1A2946FFF7A6FF01303AD01F
:103ADC0023682B442360D8F800305A6862BBC8F8BE
:103AEC0000700FE02268521B20D40B2A17D96119E1
:103AFC00A342256018BF5960636808BFC8F800105E
:103B0C0062514B60304600F02FF804F10B00231D7E
:103B1C0020F00700C21A1CBF1B1AA350AFE7626843
:103B2C00A3420CBFC8F800205A60EBE72346646838
:103B3C00AEE73C467F68B6E71A465B68A342FBD10A
:103B4C0000235360DEE70C233046336000F00CF8A2
:103B5C0094E70560D6E700BFB4010020014800F0EF
:103B6C006BB800BFF4020020014800F066B800BF3B
:103B7C00F40200200EB46FF0004100B59CB01DABF8
:103B8C0002900690079104910848094953F8042BB8
:103B9C000591006802A9019300F0F4F80022029B41
:103BAC001A701CB05DF804EB03B070472C000020B9
:103BBC000802FFFF03460244934200D1704703F80A
:103BCC00011BF9E738B50023054D044608462B6068
:103BDC00FDF7B2FD431C02D12B6803B1236038BD45
:103BEC00F0020020014B1868704700BF2C00002029
:103BFC0070B500260C4D0D4C641BA410A64209D1C7
:103C0C0000F0BAFB00260A4D0A4C641BA410A64215
:103C1C0005D170BD55F8043B98470136EEE755F8D1
:103C2C00043B98470136F2E77844000878440008D2
:103C3C00784400087C4400087047704738B5054646
:103C4C00002940D051F8043C0C1F002BB8BFE418DD
:103C5C00FFF784FF1C4A136833B96360146028466D
:103C6C00BDE83840FFF780BFA34208D9206821186F
:103C7C008B4201BF19685B6809182160EDE71A4691
:103C8C005B680BB1A342FAD911685018A0420BD152
:103C9C0020680144501883421160E0D118685B68B9
:103CAC00084410605360DAE702D90C232B60D6E786
:103CBC00206821188B4201BF19685B6809182160C4
:103CCC0063605460CBE738BDB40100202DE9F047A8
:103CDC001F468E688246BE420C4690460B682DD815
:103CEC00B1F90C2012F4906F26D06569096905EBC7
:103CFC004505A3EB010905EBD5757B1C4B446D10F9
:103D0C009D4238BF1D46530527D52946FFF7A6FE11
:103D1C00064660B34A46216900F0EAFAA38923F407
:103D2C00906343F08003A38126614E4426603E4697
:103D3C006561A5EB0905A560BE4200D93E46324639
:103D4C004146206800F0ACFA0020A3689B1BA360DE
:103D5C00236833442360BDE8F0872A4600F0D6FA86
:103D6C0006460028E0D150462169FFF767FF0C2377
:103D7C00CAF80030A3894FF0FF3043F04003A38111
:103D8C00E9E700002DE9F04F98468B8907461B06A2
:103D9C000D4614469DB010D50B6973B94021FFF741
:103DAC005DFE2860286130B90C233B604FF0FF307A
:103DBC001DB0BDE8F08F40236B61002309932023D5
:103DCC008DF8293030234FF00109CDF80C80DFF845
:103DDC0098818DF82A3023469A4613F8012B0AB1A4
:103DEC00252AF9D1BAEB040B0BD05B4622462946A7
:103DFC003846FFF76BFF013000F0A780099A5A4450
:103E0C0009929AF80030002B00F09F8000234FF0AD
:103E1C00FF32CDE905230AF1010A049307938DF8CB
:103E2C0053301A935446052214F8011B4E4800F0E7
:103E3C0051FA049AD8B9D00644BF20238DF85330D8
:103E4C00110744BF2B238DF853309AF800302A2BDE
:103E5C0015D0544600204FF00A0C079A214611F851
:103E6C00013B303B092B4BD9B0B1079214E0A0EBCE
:103E7C00080309FA03F31343A2460493D2E7039B06
:103E8C00191D1B680391002BBBBF5B4242F0020261
:103E9C0007930793B8BF049223782E2B0AD163782B
:103EAC002A2B32D1039B02341A1D1B68039243EA5E
:103EBC00E3730593DFF8B4A003225046217800F099
:103ECC0009FA38B14022049BA0EB0A00824013434C
:103EDC000134049314F8011B062225488DF8281090
:103EEC0000F0F8F9002836D0224B1BBB039B07339C
:103EFC0023F0070308330393099B334409936AE7C0
:103F0C000C4601200CFB0232A8E700234FF00A0CF0
:103F1C00194601340593204610F8012B303A092A32
:103F2C0003D9002BC6D00591C4E7044601230CFB32
:103F3C000121F0E703AB00932A4638460E4B04A947
:103F4C00AFF30080421C0646D6D1AB895B063FF529
:103F5C002DAF09982CE703AB00932A463846064B45
:103F6C0004A900F07DF8EDE742440008484400083D
:103F7C004C44000800000000D93C00082DE9F04733
:103F8C00164698468A680B6907469342B8BF134693
:103F9C00336091F843200C46DDF820900AB10133D0
:103FAC0033602368990642BF336802333360256857
:103FBC0015F0060506D104F1190AE36832689B1A5C
:103FCC00AB422BDC94F843302268003B18BF012332
:103FDC00920630D44146384604F14302C8470130BA
:103FEC0023D02368226903F00603042B14BF002599
:103FFC0033684FF0000608BFE56804F11A0408BFE7
:10400C00ED1A54F8123C08BF25EAE5759342C4BF7B
:10401C009B1AED18B5421AD1002008E00123524634
:10402C0041463846C847013003D14FF0FF30BDE858
:10403C00F0870135C1E73020E11881F843005A1CA4
:10404C0094F845102244023382F84310C2E701234E
:10405C00224641463846C8470130E6D00136D9E7FA
:10406C002DE9FF470F7E9146782F80460C469A46E5
:10407C000C9E01F1430207D8622F0AD8002F00F0E2
:10408C00D380582F00F0BA8004F1420684F84270B5
:10409C003AE0A7F16303152BF6D801A151F823F0F0
:1040AC00054100081941000895400008954000089A
:1040BC0095400008954000081941000895400008FB
:1040CC009540000895400008954000081B420008E8
:1040DC0043410008D5410008954000089540000870
:1040EC003D420008954000084341000895400008F7
:1040FC0095400008DD41000833681A1D1B683260CA
:10410C0004F1420684F8423001239EE033682068B3
:10411C00191D3160060601D51D6803E04506FBD567
:10412C00B3F90050002D03DA2D236D4284F843308F
:10413C000A23594811E021683368080653F8045BD8
:10414C0002D4490648BFADB26F2F336014BF0A23A7
:10415C0008235148002184F843106668002EA8BF3C
:10416C002168A660A4BF21F0040121600DB9002EC6
:10417C004BD01646B5FBF3F103FB1157C75D06F8A0
:10418C00017D2F46BB420D46F4D9082B0BD1236879
:10419C00DF0708D5236961689942DEBF302306F832
:1041AC00013C06F1FF36921B22614B4621464046EC
:1041BC00CDF800A003AAFFF7E1FE01304AD14FF081
:1041CC00FF3004B0BDE8F087236843F02003236080
:1041DC007827324884F84570236831681F0651F8F7
:1041EC00045B02D45F0648BFADB23160D90744BF4F
:1041FC0043F0200323601DB11023ABE72648E9E709
:10420C00236823F020032360F6E71646BDE73368E6
:10421C002568181D616930602E061B6801D5196070
:10422C0002E06806FBD51980002316462361BCE723
:10423C00336800211A1D32601E686268304600F037
:10424C0049F808B1801B606063682361002384F81F
:10425C004330AAE73246494640462369D0470130ED
:10426C00ADD023689B0713D4E068039B9842B8BF7A
:10427C001846A6E70123324649464046D04701304E
:10428C009DD00135E36803995B1AAB42F2DCEBE796
:10429C00002504F11906F5E75344000864440008AE
:1042AC00884210B501EB020402D98442234607D898
:1042BC00431EA14208D011F8012B03F8012FF8E797
:1042CC00014602448A4200D110BD13F8014D02F898
:1042DC00014DF7E7034610B5C9B2024493421846A4
:1042EC0001D1002003E0047801338C42F6D110BDDB
:1042FC000A44914200F1FF3300D1704710B511F818
:10430C00014B914203F8014FF9D110BD2DE9F04159
:10431C00804615460C4621B91146BDE8F041FFF721
:10432C009DBB2AB9FFF78AFC00242046BDE8F0812A
:10433C0000F01AF88542064602D8B5EB500FF4D8B7
:10434C0029464046FFF78AFB07460028ECD0B542C9
:10435C002A46214628BF3246FFF7CAFF214640466F
:10436C00FFF76CFC3C46E0E751F8043C181F002BAF
:10437C00BCBF0B58C0187047F8B500BFF8BC08BCE0
:10438C009E467047F8B500BFF8BC08BC9E46704707
:10439C00520000004700000041000000554E4B4EFB
:1043AC004F574E00256400004D4F4445203A2041A4
:1043BC0055544F0025732025640000004D4F444593
:1043CC00203A204D414E55414C000000313A2025F9
:1043DC0073000000323A2025730000004D4F444515
:1043EC00203A2054554E494E470000002573205466
:1043FC00494D453A20256400000000004D4F4445CE
:10440C00203A20554E4B4E4F574E000000000000F6
:10441C000000000001020304060708090000000068
:10442C000102030402030405060708090A0B0C0D1C
:10443C000E0F10100102232D302B2000686C4C0045
:10444C006566674546470030313233343536373888
:10445C0039414243444546003031323334353637E6
:0C446C003839616263646566000000007E
:044478003101000806
:04447C000D01000826
:1044800001010101050203000101010000100140CA
:10449000000C0140000801408000400000010000C5
:1044A00000127A001000000001000000300000201F
:1044B00000000000B8010020200200208802002037
:1044C00000000000000000000000000000000000EC
:1044D00000000000000000000000000000000000DC
:1044E00000000000000000000000000000000000CC
:0C44F000000000000000000000000000C0
:04000005080017BD1B
:00000001FF
