:020000040800F2
:1000000000500020411600084D1500085515000845
:100010005D150008651500086D150008000000005A
:10002000000000000000000000000000751500083E
:1000300081150008000000008D15000899150008C2
:100040008916000889160008891600088916000814
:100050008916000889160008891600088916000804
:1000600089160008891600088916000889160008F4
:1000700089160008891600088916000889160008E4
:1000800089160008891600088916000889160008D4
:1000900089160008891600088916000889160008C4
:1000A00089160008891600088916000889160008B4
:1000B000A515000889160008891600088916000889
:1000C0008916000889160008891600088916000894
:1000D0008916000889160008891600088916000884
:1000E000B9150008891600088916000800000000EC
:1000F0000000000000000000000000000000000000
:0C01000000000000000000005FF808F1A3
:10010C0010B5054C237833B9044B13B10448AFF345
:10011C0000800123237010BD70000020000000003F
:10012C00DC41000808B5034B1BB103490348AFF38E
:10013C00008008BD0000000074000020DC410008B5
:10014C0080B500AF924B1B78022B55D0022B62DC92
:10015C00002B02D0012B3BD05DE0002000F0F4FD21
:10016C000346002B52D08B4BDB688A4A43F4FC537A
:10017C00D360894B1B78032B1ED0032B20DC012B67
:10018C0002D0022B0AD01BE0834B02221A70834B45
:10019C0000221A70824B01221A7015E07E4B03224A
:1001AC001A70804B1A78804B1A707C4B00221A7094
:1001BC007B4B00221A7007E0774B00221A7003E089
:1001CC00754B00221A7000BF714B01221A701DE092
:1001DC00002000F0B9FD0346002B03D16C4B00222C
:1001EC001A7015E0002000F0C9FD0346002B0FD05B
:1001FC00674B02221A700BE0002000F0A5FD0346AD
:10020C00002B07D1624B00221A7003E000BF02E002
:10021C0000BF00E000BF5E4B5B78022B00F09780C4
:10022C00022B00F3A380002B02D0012B0BD09DE0FE
:10023C00012000F089FD0346002B00F09280544B06
:10024C0001225A708DE0012000F07EFD0346002B48
:10025C0054D1514B1B78022B02D0032B1FD049E0F9
:10026C004E4B1B785A1C514B83FB0231D317C91AC6
:10027C000B465B000B44D11ACAB2484B1A70484B60
:10028C001B785A1C494B83FB0231D317C91A0B46F6
:10029C005B000B44D11ACAB2414B1A702AE03F4B97
:1002AC001B785A1C414B83FB0231D317C91A0B46DE
:1002BC005B000B44D11ACAB2384B1A70374B1B78FF
:1002CC00022B0BD0022B13DC002B02D0012B0AD0FB
:1002DC000EE0344B1A78344B1A700AE0344B1A780F
:1002EC00314B1A7005E0334B1A782F4B1A7000E023
:1002FC0000BF00BF264B01225A7034E0012000F0F1
:10030C003DFD0346002B2ED0234B1B78032B1AD11B
:10031C00224B1B78022B0BD0022B13DC002B02D0B0
:10032C00012B0AD00EE0204B1A781E4B1A700AE0F3
:10033C001D4B1A781E4B1A7005E01B4B1A781D4B7F
:10034C001A7000E000BF124B02225A700BE0012021
:10035C0000F0FAFC0346002B07D10D4B00225A701B
:10036C0003E000BF02E000BF00E000BF084B9B7839
:10037C00022B4CD0022B57DC002B02D0012B1BD0B4
:10038C0052E0022000F0E0FC0346002B4CE000BFE2
:10039C00000000200010014091000020920000207D
:1003AC000C0000200D0000209500002056555555DE
:1003BC000E0000200F000020022000F0C5FC0346B8
:1003CC00002B1AD1194B1B78032B12D1184B1B780D
:1003DC00012B08D1174B1A78174B1B789A4202D372
:1003EC00144B00221A70134B1B780133DAB2114BE9
:1003FC001A70124B00229A7013E0022000F0BEFC1F
:10040C000346002B0DD00D4B02229A7009E00220FE
:10041C0000F09AFC0346002B05D1084B00229A7081
:10042C0001E000BF00E000BF00BF80BD91000020D4
:10043C0092000020950000200D00002000000020FC
:10044C0080B483B000AF7860374BDB68364A23F05A
:10045C007F03D3607B68092B5AD801A252F823F092
:10046C0095040008A3040008B1040008BF040008A8
:10047C00CD040008DB040008E9040008F7040008B8
:10048C00050500080F050008274BDB68264A43F0DA
:10049C004003D36043E0244BDB68234A43F07903E9
:1004AC00D3603CE0204BDB681F4A43F02403D3604D
:1004BC0035E01D4BDB681C4A43F03003D3602EE063
:1004CC00194BDB68184A43F01903D36027E0164B2D
:1004DC00DB68154A43F01203D36020E0124BDB6853
:1004EC00114A43F00203D36019E00F4BDB680E4A4C
:1004FC0043F07803D36012E00B4B0B4ADB68D360FC
:10050C000DE0094BDB68084A43F01003D36006E0AA
:10051C00054BDB68044A43F07F03D36000BF00BF88
:10052C000C37BD4680BC70470010014080B483B0CE
:10053C0000AF03460A46FB711346BB71FB79174AA1
:10054C00A2FB0323DB08DAB2154B1A70FA79134BB2
:10055C00A3FB0213D9080B469B000B445B00D31A78
:10056C00DAB20F4B5A70BB790C4AA2FB0323DB089F
:10057C00DAB20B4B9A70BA79084BA3FB0213D90869
:10058C000B469B000B445B00D31ADAB2044BDA70B7
:10059C0000BF0C37BD4680BC704700BFCDCCCCCC67
:1005AC008C00002080B500AF144BDB68134A43F479
:1005BC007043D360124B1B781A46124B9B5C184647
:1005CC00FFF73EFF0D4BDB680D4A127811460E4AC1
:1005DC0032F81120D2431146084A0B40D360084B25
:1005EC001B7801335A4203F0030302F0030258BF95
:1005FC005342DAB2024B1A7000BF80BD000C0140AE
:10060C00900000208C0000200400002080B400AF7B
:10061C004A4BDB68494A43F4FC53D360484B1B7884
:10062C00022B2AD0022B3FDC002B02D0012B12D044
:10063C003AE0424BDB68414A23F08003D360414BE4
:10064C001B78002B2BD13E4B01221A703E4B1A7893
:10065C003C4B1A7023E0394BDB68384A23F40073A7
:10066C00D360384B1B78002B1BD1354B02221A70F0
:10067C00364B1A78334B1A7013E0304BDB682F4A29
:10068C0023F48073D3602F4B1B78002B0BD12C4B96
:10069C0000221A702E4B1A782A4B1A7003E000BFF6
:1006AC0002E000BF00E000BF2A4B1B78022B2AD0CF
:1006BC00022B3FDC002B02D0012B12D03AE01F4B57
:1006CC00DB681E4A23F48063D360234B1B78002B1A
:1006DC002BD1204B01221A701B4B1A781E4B1A700F
:1006EC0023E0164BDB68154A23F48053D3601A4B76
:1006FC001B78002B1BD1174B02221A70134B1A7844
:10070C00154B1A7013E00D4BDB680C4A23F4006395
:10071C00D360114B1B78002B0BD10E4B00221A709F
:10072C000B4B1A780C4B1A7003E000BF02E000BFB1
:10073C0000E000BF00BFBD4680BC70470010014008
:10074C0092000020930000200F0000200E000020DB
:10075C000D0000200C0000209400002080B500AF9C
:10076C000F4B1B780F4A127811461846FFF7DEFE26
:10077C00FFF74CFF0A4B1B78002B05D0084B1B785E
:10078C00013BDAB2064B1A70064B1B78002B05D0D6
:10079C00044B1B78013BDAB2024B1A7000BF80BDD0
:1007AC00930000209400002080B500AF044B012280
:1007BC001A70044B01221A70FFF728FF00BF80BD8E
:1007CC00930000209400002080B500AF1F4B1B78D5
:1007DC00022B16D0022B36DC002B02D0012B21D0A1
:1007EC0031E01B4B1B7819460120FFF79FFE80213F
:1007FC00184801F075FA4FF48061164801F070FA50
:10080C0021E0134B1B7819460220FFF78FFE4FF4A3
:10081C008071104801F064FA4FF400610D4801F04A
:10082C005FFA10E00A4B1B7819460320FFF77EFE97
:10083C004FF40071074801F053FA4FF4805105480A
:10084C0001F04EFA00BF00BF80BD00BF9200002037
:10085C00950000200010014080B500AF2C4B1B7898
:10086C00032B4ED801A252F823F000BF89080008D0
:10087C00C9080008E908000809090008254BDB68CD
:10088C00244A43F4FC53D360234B1A78234B1B7834
:10089C00D31ADAB2224B1A701F4B1A78214B1A70EA
:1008AC001E4B1A78204B1A70204B00221A70204BCA
:1008BC0001221A70164B01221A7027E01D4B1B786F
:1008CC000133DAB21B4B1A701A4B1B7803F001037D
:1008DC00DBB2002B17D0FFF741FF14E0154B1B7850
:1008EC000133DAB2134B1A70124B1B7803F001036D
:1008FC00DBB2002B09D0FFF757FF06E0FFF764FFD0
:10090C0004E000BF02E000BF00E000BF00BF80BDFC
:10091C0091000020001001400D0000200F0000206D
:10092C000E00002093000020940000209200002074
:10093C000C0000209500002080B586B002AF034665
:10094C00FB7197F9073023F00F035BB243F00C03F4
:10095C005BB2DBB23B7397F9073023F00F035BB24A
:10096C0043F008035BB2DBB27B73FB791B015BB218
:10097C0043F00C035BB2DBB2BB73FB791B015BB2C4
:10098C0043F008035BB2DBB2FB730A4B186807F148
:10099C000C024FF0FF3300930423422101F020FBA3
:1009AC000346002B01D0002300E00123184610372A
:1009BC00BD4680BD9800002080B586B002AF0346CE
:1009CC00FB7197F9073023F00F035BB243F00D0373
:1009DC005BB2DBB23B7397F9073023F00F035BB2CA
:1009EC0043F009035BB2DBB27B73FB791B015BB297
:1009FC0043F00D035BB2DBB2BB73FB791B015BB243
:100A0C0043F009035BB2DBB2FB730A4B186807F1C6
:100A1C000C024FF0FF3300930423422101F0E0FA63
:100A2C000346002B01D0002300E0012318461037A9
:100A3C00BD4680BD9800002080B500AF322000F08C
:100A4C0081FE3020FFF778FF052000F07BFE302080
:100A5C00FFF772FF012000F075FE3020FFF76CFFEE
:100A6C000A2000F06FFE2020FFF766FF0A2000F03E
:100A7C0069FE2820FFF760FF012000F063FE0820CC
:100A8C00FFF75AFF012000F05DFE0120FFF754FF35
:100A9C00012000F057FE012000F054FE0620FFF765
:100AAC004BFF012000F04EFE0C20FFF745FF00BF6E
:100ABC0080BD80B582B000AF786006E07B685A1CC0
:100ACC007A601B781846FFF777FF7B681B78002B42
:100ADC00F4D100BF00BF0837BD4680BD80B500AF64
:100AEC000120FFF729FF022000F02CFE00BF80BD83
:100AFC0080B584B000AF03460A46FB711346BB7148
:100B0C000023FB73BB79132B01D90023BB71FB7939
:100B1C00002B03D1BB79803BFB7305E0FB79012BE8
:100B2C0002D1BB79403BFB73FB7B1846FFF704FFFC
:100B3C0000BF1037BD4680BD80B483B000AF034604
:100B4C003960FB71FB79022B14D0022B19DC002BC2
:100B5C0002D0012B07D014E03B6810491A460B4613
:100B6C001B88138015E03B680D491A460B461B8801
:100B7C0013800EE03B680B491A460B461B8813800A
:100B8C0007E03B6808491A460B4603CB10605160DE
:100B9C0000BF00BF0C37BD4680BC7047F841000851
:100BAC00FC410008004200080442000880B588B0EF
:100BBC0000AFFFF793FF564B1B78FB61554B1B782F
:100BCC00032B79D0032B00F39680012B02D0022B40
:100BDC003AD090E000210020FFF78AFF4E48FFF743
:100BEC0068FF4E4B1B7807F1140211461846FFF7AD
:100BFC00A3FF00210120FFF77BFF494B1B7807F176
:100C0C001402381D474902F0E1FE3B1D1846FFF760
:100C1C0050FF00233B71444B1B7807F11402114623
:100C2C001846FFF789FF08210120FFF761FF3F4BB2
:100C3C001B7807F11402381D3A4902F0C7FE3B1D20
:100C4C001846FFF736FF5EE0344B1B7807F11402B1
:100C5C0011461846FFF770FF00210020FFF748FFF0
:100C6C003348FFF726FF00210120FFF741FF07F172
:100C7C0014023B1D2F49184602F0A8FE3B1D1846D6
:100C8C00FFF717FF284B1B7807F114021146184683
:100C9C00FFF752FF00233B710A210120FFF728FFC9
:100CAC0007F114023B1D2449184602F08FFE3B1D30
:100CBC001846FFF7FEFE26E0184B1B7807F11402CE
:100CCC0011461846FFF738FF00210020FFF710FFF0
:100CDC001A48FFF7EEFE00210120FFF709FF07F18C
:100CEC001402381DFB69164902F070FE3B1D1846B4
:100CFC00FFF7DFFE07E000210020FFF7F9FE1148A7
:100D0C00FFF7D7FE00BF00BF2037BD4680BD00BF38
:100D1C0095000020910000200C4200089200002059
:100D2C0093000020184200080C00002094000020C2
:100D3C0020420008304200083842000840420008B7
:100D4C00504200086042000880B483B000AF0346F4
:100D5C00FB71FB79022B01D9002307E0FB79064AD2
:100D6C00D35C002B0CBF01230023DBB218460C37DD
:100D7C00BD4680BC704700BF1000002080B483B01B
:100D8C0000AF0346FB71FB79022B01D9FF2307E06F
:100D9C00FB79064AD35C012B0CBF01230023DBB289
:100DAC0018460C37BD4680BC704700BF9C00002025
:100DBC0080B582B000AF78607B681B68B3F1804F60
:100DCC0001D100F0CFFA00BF0837BD4680BD00004E
:100DDC0080B500AF0221024800F082FF00BF80BD49
:100DEC000008014080B500AF00F04AFC00F040F86C
:100DFC0000F024F900F0F8F800F07CF800F0A8F806
:100E0C00154802F0A5F800F0C5F9FFF715FEFA2217
:100E1C004FF47A71114800F087FA0A221E2110480B
:100E2C0000F082FA4FF4FA7278210E4800F07CFA46
:100E3C0032221E210C4800F077FA4FF4FA7214217A
:100E4C000A4800F071FAFFF7C3FF4FF4FA7000F094
:100E5C0079FC00BFF7E700BFF4000020B1050008E3
:100E6C004D01000865080008B90B0008DD0D0008ED
:100E7C0080B590B000AF07F1180328220021184666
:100E8C0002F0C4FD3B1D00221A605A609A60DA60C1
:100E9C001A610223BB610123BB621023FB62022394
:100EAC007B630023BB634FF46013FB6307F11803F0
:100EBC00184601F0EDFB0346002B01D000F064F95D
:100ECC000F237B600223BB60A023FB604FF4806385
:100EDC003B6100237B613B1D0221184601F05AFE49
:100EEC000346002B01D000F04FF900BF4037BD4640
:100EFC0080BD000080B500AF124B134A1A60114B35
:100F0C00124A5A600F4B00229A600E4B0022DA6094
:100F1C000C4B4FF480421A610A4B00225A61094B68
:100F2C0000229A61074B0022DA61064B00221A62FA
:100F3C00044800F011FF0346002B01D000F024F907
:100F4C0000BF80BDA000002000540040A08601001E
:100F5C0080B586B000AF07F1080300221A605A6012
:100F6C009A60DA603B4600221A605A601D4B4FF0C3
:100F7C0080421A601B4B41F63F725A60194B00229B
:100F8C009A60184B0922DA60164B00221A61154B35
:100F9C0000229A61134801F08BFF0346002B01D00D
:100FAC0000F0F2F84FF48053BB6007F108031946C8
:100FBC000C4802F00FF90346002B01D000F0E4F8C6
:100FCC0000233B6000237B603B461946054802F03A
:100FDC00F1FA0346002B01D000F0D6F800BF183709
:100FEC00BD4680BDF400002080B500AF114B124A05
:100FFC001A60104B4FF4E1325A600E4B00229A608B
:10100C000C4B0022DA600B4B00221A61094B0C22AC
:10101C005A61084B00229A61064B0022DA6105489E
:10102C0002F038FB0346002B01D000F0ADF800BFF6
:10103C0080BD00BF3C0100200044004080B588B05A
:10104C0000AF07F1100300221A605A609A60DA6050
:10105C00484B9B69474A43F010039361454B9B698E
:10106C0003F01003FB60FB68424B9B69414A43F061
:10107C00200393613F4B9B6903F02003BB60BB686B
:10108C003C4B9B693B4A43F004039361394B9B698E
:10109C0003F004037B607B68364B9B69354A43F055
:1010AC0008039361334B9B6903F008033B603B6877
:1010BC00002241F6FF71304800F0FAFD00220221B7
:1010CC002E4800F0F5FD00224FF470412C4800F042
:1010DC00EFFD4FF400533B612A4B7B610023BB6156
:1010EC0007F110031946244800F05EFC41F6FF732B
:1010FC003B6101237B610023BB610223FB6107F190
:10110C00100319461C4800F04FFC02233B610123DD
:10111C007B610023BB610223FB6107F110031946BD
:10112C00164800F041FC70233B6100237B610123D6
:10113C00BB6107F110031946104800F035FC4FF461
:10114C0070433B6101237B610023BB610223FB6184
:10115C0007F1100319460A4800F026FC0022002172
:10116C00282000F0EAFB282000F003FC00BF203709
:10117C00BD4680BD00100240001001400008014037
:10118C00000C01400000111080B400AF72B600BF1B
:10119C0000BFFDE780B584B000AF144B1B68002B7B
:1011AC0006D1124B00221A60104B00225A6018E034
:1011BC000E4B1B68FB600023FB720AE0FB687B6034
:1011CC00FB685B68FB60786802F04AFBFB7A0133D2
:1011DC00FB72FA7A054B5B689A42EFD3034B002201
:1011EC001A6000BF1037BD4680BD00BF84010020CF
:1011FC0080B58AB000AFF860B9607A603B601820A7
:10120C0002F026FB03467B61464B5B68092B02D838
:10121C007B69002B01D16E237FE07B69FA681A6031
:10122C007B697A689A607B693A68DA607B6900222C
:10123C001A747B69BA685A617B6900225A60394B0F
:10124C001B68002B05D0374B1B689B687A689A4249
:10125C0013D8344B1B68002B07D0324B1B68996892
:10126C00304B1B687A688A1A9A602E4B1A687B6915
:10127C005A602C4A7B69136048E000237B62294B3F
:10128C001B683B620023FB610023BB6129E03B6AC6
:10129C009B687A6A13447B627A6A7B689A4218D993
:1012AC003B6A9A687B6AD21A7B681A447B699A609B
:1012BC003B6A9A687B699B68D21A3B6A9A607B6925
:1012CC003A6A5A60FB69002B11D0FB697A695A6043
:1012DC000DE03B6AFB613B6A5B683B62BB690133B7
:1012EC00BB61104B5A68BB699A42D0D800E000BF72
:1012FC003B6A002B0AD1FB69002B07D07A687B6A0A
:10130C00D21A7B699A60FB697A695A60054B5B68F3
:10131C000133044A53607B695B6918462837BD4624
:10132C0080BD00BF8401002080B584B000AFF860A0
:10133C00B9607A60094B5968BB68094AA2FB032360
:10134C00DA087B680648A0FB0303DB08F868FFF7A4
:10135C004FFF034618461037BD4680BD8401002060
:10136C00CDCCCCCC80B400AF0B4B1B68002B0FD07A
:10137C00094B1B689B68002B04D1074B1B6801228F
:10138C001A7406E0044B1B689A68013A9A6000E0F4
:10139C0000BFBD4680BC70478401002080B485B07E
:1013AC0000AF154B9B69144A43F001039361124B38
:1013BC009B6903F00103BB60BB680F4BDB690E4AF2
:1013CC0043F08053D3610C4BDB6903F080537B609B
:1013DC007B680A4B5B68FB60FB6823F0E063FB6097
:1013EC00FB6843F00073FB60044AFB68536000BF6A
:1013FC001437BD4680BC704700100240000001400D
:10140C0080B588B000AF786007F1100300221A6035
:10141C005A609A60DA607B681B68154A934223D144
:10142C00144B9B69134A43F008039361114B9B695E
:10143C0003F00803FB60FB68C0233B6112237B6154
:10144C000323FB6107F1100319460B4800F0ACFABB
:10145C00084BDB69074A43F40013D361054BDB6986
:10146C0003F40013BB60BB6800BF2037BD4680BDD2
:10147C000054004000100240000C014080B584B0C4
:10148C0000AF78607B681B68B3F1804F13D10C4BB5
:10149C00DB690B4A43F00103D361094BDB6903F0B1
:1014AC000103FB60FB68002200211C2000F045FAC0
:1014BC001C2000F05EFA00BF1037BD4680BD00BF97
:1014CC000010024080B588B000AF786007F11003BF
:1014DC0000221A605A609A60DA607B681B68154AB1
:1014EC00934223D1144BDB69134A43F40033D36189
:1014FC00114BDB6903F40033FB60FB680E4B9B69FB
:10150C000D4A43F0040393610B4B9B6903F00403F6
:10151C00BB60BB680C233B6102237B610223FB6134
:10152C0007F110031946054800F03EFA00BF2037BA
:10153C00BD4680BD00440040001002400008014040
:10154C0080B400AF00BFFDE780B400AF00BFFDE783
:10155C0080B400AF00BFFDE780B400AF00BFFDE773
:10156C0080B400AF00BFFDE780B400AF00BFBD4644
:10157C0080BC704780B400AF00BFBD4680BC7047D4
:10158C0080B400AF00BFBD4680BC704780B500AFD3
:10159C0000F0BCF800BF80BD80B500AF024801F080
:1015AC0029FD00BF80BD00BFF400002080B500AF56
:1015BC004FF4005000F0AEFB00BF80BD80B586B08C
:1015CC0000AF7860144A154BD31A7B617B693B6181
:1015DC00134B1B68002B02D1114B124A1A60104B93
:1015EC001A687B6813443A699A4207D202F026FAC9
:1015FC0003460C221A604FF0FF3309E0084B1B68BE
:10160C00FB60074B1A687B681344054A1360FB6840
:10161C0018461837BD4680BD00500020000400005D
:10162C008C010020E002002080B400AF00BFBD465A
:10163C0080BC7047FFF7F8FF0B480C490C4A00239D
:10164C0002E0D458C4500433C4188C42F9D3094A6C
:10165C00094C002301E013600432A242FBD302F0D8
:10166C00F3F9FFF7BFFB704700000020700000206B
:10167C00D842000870000020DC020020FEE70000C9
:10168C0080B500AF084B1B68074A43F0100313608A
:10169C00032000F047F9002000F008F8FFF77EFE69
:1016AC000023184680BD00BF0020024080B582B0E8
:1016BC0000AF7860124B1A68124B1B7819464FF426
:1016CC007A73B3FBF1F3B2FBF3F3184600F05FF956
:1016DC000346002B01D001230EE07B680F2B0AD8A8
:1016EC00002279684FF0FF3000F027F9064A7B683A
:1016FC001360002300E0012318460837BD4680BD67
:10170C00140000201C0000201800002080B400AF42
:10171C00054B1B781A46054B1B681344034A136090
:10172C0000BFBD4680BC70471C000020900100200B
:10173C0080B400AF024B1B681846BD4680BC704796
:10174C009001002080B584B000AF7860FFF7F0FF07
:10175C00B8607B68FB60FB68B3F1FF3F05D00A4BB8
:10176C001B781A46FB681344FB6000BFFFF7E0FFD1
:10177C000246BB68D31AFA689A42F7D800BF00BF7A
:10178C001037BD4680BD00BF1C00002080B485B062
:10179C0000AF78607B6803F00703FB600C4BDB68E1
:1017AC00BB60BA684FF6FF031340BB60FB681A02BC
:1017BC00BB68134343F0BF6343F40033BB60044A7C
:1017CC00BB68D36000BF1437BD4680BC704700BFF8
:1017DC0000ED00E080B400AF044BDB681B0A03F0A3
:1017EC0007031846BD4680BC704700BF00ED00E003
:1017FC0080B483B000AF0346FB7197F90730002B20
:10180C000BDBFB7903F01F02064997F907305B09E4
:10181C00012000FA02F241F8232000BF0C37BD462C
:10182C0080BC704700E100E080B483B000AF034699
:10183C003960FB7197F90730002B0ADB3B68DAB291
:10184C000C4997F907301201D2B20B4483F80023EC
:10185C000AE03B68DAB20849FB7903F00F03043B5A
:10186C001201D2B20B441A7600BF0C37BD4680BCB5
:10187C00704700BF00E100E000ED00E080B489B0EB
:10188C0000AFF860B9607A60FB6803F00703FB6196
:10189C00FB69C3F10703042B28BF0423BB61FB695D
:1018AC000433062B02D9FB69033B00E000237B6168
:1018BC004FF0FF32BB6902FA03F3DA43BB681A40FC
:1018CC007B699A404FF0FF317B6901FA03F3D943EE
:1018DC007B680B40134318462437BD4680BC7047C9
:1018EC0080B582B000AF78607B68013BB3F1807F3C
:1018FC0001D301230FE00A4A7B68013B53600F219F
:10190C004FF0FF30FFF790FF054B00229A60044B1D
:10191C0007221A60002318460837BD4680BD00BF59
:10192C0010E000E080B582B000AF78607868FFF717
:10193C002DFF00BF0837BD4680BD80B586B000AF17
:10194C000346B9607A60FB7300237B61FFF742FFAB
:10195C0078617A68B9687869FFF790FF024697F961
:10196C000F3011461846FFF75FFF00BF1837BD4612
:10197C0080BD80B582B000AF0346FB7197F907308C
:10198C001846FFF735FF00BF0837BD4680BD80B550
:10199C0082B000AF78607868FFF7A2FF0346184664
:1019AC000837BD4680BD000080B48BB000AF7860B6
:1019BC00396000237B6200233B6269E101227B6A70
:1019CC0002FA03F3FB613B681B68FA691340BB61C5
:1019DC00BA69FB699A4240F058813B685B689A4A45
:1019EC0093425ED0984A934275D8984A934258D005
:1019FC00964A93426FD8964A934252D0944A934255
:101A0C0069D8944A93424CD0924A934263D8924AF2
:101A1C00934246D0904A93425DD8122B2AD8122B6F
:101A2C0059D801A252F823F0AF1A0008891A0008FD
:101A3C009B1A0008DD1A0008E31A0008E31A0008D4
:101A4C00E31A0008E31A0008E31A0008E31A000876
:101A5C00E31A0008E31A0008E31A0008E31A000866
:101A6C00E31A0008E31A0008E31A0008911A0008A8
:101A7C00A51A0008794A934213D02CE03B68DB6826
:101A8C003B6229E03B68DB6804333B6224E03B6843
:101A9C00DB6808333B621FE03B68DB680C333B625E
:101AAC001AE03B689B68002B02D104233B6213E0D5
:101ABC003B689B68012B05D108233B627B68FA6964
:101ACC001A6109E008233B627B68FA695A6103E0FA
:101ADC0000233B6200E000BFBB69FF2B01D87B6891
:101AEC0001E07B6804337B61BB69FF2B02D87B6A06
:101AFC009B0002E07B6A083B9B003B617B691A6898
:101B0C000F213B6901FA03F3DB431A40396A3B6945
:101B1C0001FA03F31A437B691A603B685B6803F0B4
:101B2C008053002B00F0B1804D4B9B694C4A43F025
:101B3C00010393614A4B9B6903F00103BB60BB68D3
:101B4C00484A7B6A9B08023352F82330FB607B6A5D
:101B5C0003F003039B000F2202FA03F3DB43FA6842
:101B6C001340FB607B68404A934213D07B683F4A2A
:101B7C0093420DD07B683E4A934207D07B683D4A26
:101B8C00934201D1032306E0042304E0022302E084
:101B9C00012300E000237A6A02F0030292009340D2
:101BAC00FA681343FB602F497B6A9B080233FA687F
:101BBC0041F823203B685B6803F48013002B06D0AC
:101BCC002D4B9A682C49BB6913438B6006E02A4B5A
:101BDC009A68BB69DB43284913408B603B685B68A0
:101BEC0003F40013002B06D0234BDA682249BB699F
:101BFC001343CB6006E0204BDA68BB69DB431E491C
:101C0C001340CB603B685B6803F40033002B06D0B9
:101C1C00194B5A681849BB6913434B6006E0164BC5
:101C2C005A68BB69DB43144913404B603B685B68E3
:101C3C0003F48033002B21D00F4B1A680E49BB697B
:101C4C0013430B6021E000BF000032100000311084
:101C5C0000002210000021100000121000001110D2
:101C6C00001002400000014000080140000C01403F
:101C7C000010014000140140000401400B4B1A6895
:101C8C00BB69DB43094913400B607B6A01337B6200
:101C9C003B681A687B6A22FA03F3002B7FF48EAE42
:101CAC0000BF00BF2C37BD4680BC7047000401400C
:101CBC0080B483B000AF78600B467B8013467B709A
:101CCC007B78002B03D07A887B681A6103E07B88D1
:101CDC001A047B681A6100BF0C37BD4680BC704784
:101CEC0080B485B000AF78600B467B807B68DB6886
:101CFC00FB607A88FB6813401A04FB68D9437B8825
:101D0C000B401A437B681A6100BF1437BD4680BC78
:101D1C007047000080B582B000AF0346FB80084BD3
:101D2C005A69FB881340002B06D0054AFB88536187
:101D3C00FB88184600F006F800BF0837BD4680BD8A
:101D4C000004014080B483B000AF0346FB8000BFA9
:101D5C000C37BD4680BC704780B584B000AF78604E
:101D6C007B68002B01D101232BE17B6893F83D307C
:101D7C00DBB2002B06D17B68002283F83C2078680C
:101D8C00FFF73EFB7B68242283F83D207B681B68B1
:101D9C001A687B681B6822F001021A607B681B685A
:101DAC001A687B681B6842F400421A607B681B68E7
:101DBC001A687B681B6822F400421A6001F032F842
:101DCC00F8607B685B68814A934207D8FB68804A5D
:101DDC00934294BF01230023DBB206E0FB687D4AEB
:101DEC00934294BF01230023DBB2002B01D00123CB
:101DFC00E7E0FB68784AA2FB03239B0CBB607B6883
:101E0C001B685B6823F03F017B681B68BA680A4358
:101E1C005A607B681B681B6A23F03F017B685B6818
:101E2C006A4A934202D8BB68013309E0BB684FF49D
:101E3C00967202FB03F3694AA2FB03239B0901334D
:101E4C007A6812680B4313627B681B68DB6923F4A6
:101E5C004F4222F0FF027B685B685C498B4219D8C9
:101E6C00FB68591E7B685B685B00B1FBF3F3591C84
:101E7C0040F6FC730B40002B0AD0FB68591E7B68A4
:101E8C005B685B00B1FBF3F30133C3F30B0351E06D
:101E9C0004234FE07B689B68002B11D1FB68581E14
:101EAC007B6859680B465B000B44B0FBF3F30133C2
:101EBC00C3F30B03002B0CBF01230023DBB212E096
:101ECC00FB68581E7B6859680B469B000B449900B5
:101EDC000B44B0FBF3F30133C3F30B03002B0CBF28
:101EEC0001230023DBB2002B01D0012322E07B680D
:101EFC009B68002B0ED1FB68581E7B6859680B46FB
:101F0C005B000B44B0FBF3F30133C3F30B0343F45B
:101F1C0000430FE0FB68581E7B6859680B469B001A
:101F2C000B4499000B44B0FBF3F30133C3F30B03E5
:101F3C0043F44043796809681343CB617B681B68A1
:101F4C001B6823F0C0017B68DA697B681B6A1A4343
:101F5C007B681B680A431A607B681B689B6823F4C8
:101F6C00034323F0FF037A6811697A68D26811433E
:101F7C007A6812680B4393607B681B68DB6823F0FC
:101F8C00FF017B685A697B689B691A437B681B68F5
:101F9C000A43DA607B681B681A687B681B6842F02E
:101FAC0001021A607B6800221A647B68202283F885
:101FBC003D207B6800221A637B68002283F83E2058
:101FCC00002318461037BD4680BD00BFA086010017
:101FDC007F841E00FF083D0083DE1B43D34D62103F
:101FEC0080B588B002AFF8607A601A460B467B81E8
:101FFC0013463B81FFF79CFB7861FB6893F83D30FF
:10200C00DBB2202B40F0E0807B6900931923012286
:10201C007049F86800F064F90346002B01D00223E4
:10202C00D3E0FB6893F83C30012B01D10223CCE0C8
:10203C00FB68012283F83C20FB681B681B6803F0DB
:10204C000103012B07D0FB681B681A68FB681B682F
:10205C0042F001021A60FB681B681A68FB681B6877
:10206C0022F400621A60FB68212283F83D20FB6891
:10207C00102283F83E20FB6800221A64FB687A6801
:10208C005A62FB683A895A85FB685B8D9AB2FB6889
:10209C001A85FB68504ADA6279897B693A6AF86872
:1020AC0000F09CF80346002B01D001238DE00023A7
:1020BC003B61FB681B685B693B61FB681B689B6948
:1020CC003B613B6966E07A69396AF86800F022FA8C
:1020DC000346002B0DD0FB681B6C042B07D1FB684F
:1020EC001B681A68FB681B6842F400721A600123B3
:1020FC006BE0FB685B6A1A78FB681B681A61FB680B
:10210C005B6A5A1CFB685A62FB685B8D9BB2013B95
:10211C009AB2FB685A85FB681B8D013B9AB2FB682F
:10212C001A85FB681B685B6903F00403042B1BD145
:10213C00FB681B8D002B17D0FB685B6A1A78FB6859
:10214C001B681A61FB685B6A5A1CFB685A62FB6865
:10215C005B8D9BB2013B9AB2FB685A85FB681B8D69
:10216C00013B9AB2FB681A857A69396AF86800F003
:10217C0019FA0346002B0DD0FB681B6C042B07D1FE
:10218C00FB681B681A68FB681B6842F400721A60D3
:10219C0001231AE0FB681B8D002B94D1FB681B6894
:1021AC001A68FB681B6842F400721A60FB682022F4
:1021BC0083F83D20FB68002283F83E20FB68002258
:1021CC0083F83C20002300E0022318461837BD4654
:1021DC0080BD00BF020010000000FFFF80B588B07A
:1021EC0002AFF8607A603B600B467B81FB68DB6A70
:1021FC007B617B69082B06D07B69012B03D07B6943
:10220C0013F5803F08D1FB681B681A68FB681B68D4
:10221C0042F480721A600BE0FB681B6B122B07D127
:10222C00FB681B681A68FB681B6842F480721A60B2
:10223C003B6800937B6800224FF00111F86800F0B6
:10224C004FF80346002B0DD0FB681B681B6803F48A
:10225C008073B3F5807F03D1FB684FF400721A646E
:10226C00032335E0FB681B69B3F5804F08D17B89EC
:10227C00DBB21A46FB681B6802F0FE021A611BE017
:10228C007B89DB11DBB203F00603DBB263F00F03D7
:10229C00DAB2FB681B681A613B687A680E49F86809
:1022AC0000F098F80346002B01D0012310E07B8945
:1022BC00DAB2FB681B681A613B687A680749F868F0
:1022CC0000F088F80346002B01D0012300E0002326
:1022DC0018461837BD4680BD0800010002000100F9
:1022EC0080B584B000AFF860B9603B601346FB71F9
:1022FC0048E03B68B3F1FF3F44D0FFF719FA0246C0
:10230C00BB69D31A3A689A4202D33B68002B39D185
:10231C00BB681B0CDBB2012B0DD1FB681B685B6926
:10232C00DA43BB6813409BB2002B0CBF0123002384
:10233C00DBB21A460CE0FB681B689B69DA43BB688E
:10234C0013409BB2002B0CBF01230023DBB21A46B7
:10235C00FB799A4216D1FB6800221A63FB68202293
:10236C0083F83D20FB68002283F83E20FB681B6C41
:10237C0043F02002FB681A64FB68002283F83C20BF
:10238C00012323E0BB681B0CDBB2012B0DD1FB68D6
:10239C001B685B69DA43BB6813409BB2002B0CBF14
:1023AC0001230023DBB21A460CE0FB681B689B6917
:1023BC00DA43BB6813409BB2002B0CBF01230023F4
:1023CC00DBB21A46FB799A4293D000231846103799
:1023DC00BD4680BD80B584B000AFF860B9607A604E
:1023EC003B6071E0FB681B685B6903F48063B3F5C9
:1023FC00806F23D1FB681B681A68FB681B6842F46A
:10240C0000721A60FB681B686FF480625A61FB688B
:10241C0000221A63FB68202283F83D20FB6800220F
:10242C0083F83E20FB681B6C43F00402FB681A64C3
:10243C00FB68002283F83C20012367E07B68B3F142
:10244C00FF3F41D0FFF774F902463B68D31A7A6814
:10245C009A4202D37B68002B36D1BB681B0CDBB2D3
:10246C00012B0CD1FB681B685B69DA43BB6813401A
:10247C009BB2002B14BF01230023DBB20BE0FB68E3
:10248C001B689B69DA43BB6813409BB2002B14BFDB
:10249C0001230023DBB2002B16D0FB6800221A6349
:1024AC00FB68202283F83D20FB68002283F83E2045
:1024BC00FB681B6C43F02002FB681A64FB6800226B
:1024CC0083F83C20012321E0BB681B0CDBB2012B01
:1024DC000CD1FB681B685B69DA43BB6813409BB289
:1024EC00002B14BF01230023DBB20BE0FB681B683D
:1024FC009B69DA43BB6813409BB2002B14BF0123CA
:10250C000023DBB2002B7FF46DAF0023184610378D
:10251C00BD4680BD80B584B000AFF860B9607A600C
:10252C0034E0F86800F086F80346002B01D0012354
:10253C0034E0BB68B3F1FF3F28D0FFF7F9F802464F
:10254C007B68D31ABA689A4202D3BB68002B1DD1A0
:10255C00FB681B685B6903F08003802B16D0FB685B
:10256C0000221A63FB68202283F83D20FB680022BE
:10257C0083F83E20FB681B6C43F02002FB681A6456
:10258C00FB68002283F83C20012307E0FB681B68F2
:10259C005B6903F08003802BC3D1002318461037EE
:1025AC00BD4680BD80B584B000AFF860B9607A607C
:1025BC0034E0F86800F03EF80346002B01D001230C
:1025CC0034E0BB68B3F1FF3F28D0FFF7B1F8024607
:1025DC007B68D31ABA689A4202D3BB68002B1DD110
:1025EC00FB681B685B6903F00403042B16D0FB68C3
:1025FC0000221A63FB68202283F83D20FB6800222E
:10260C0083F83E20FB681B6C43F02002FB681A64C5
:10261C00FB68002283F83C20012307E0FB681B6861
:10262C005B6903F00403042BC3D100231846103755
:10263C00BD4680BD80B483B000AF78607B681B68FA
:10264C005B6903F48063B3F5806F1BD17B681B68F7
:10265C006FF480625A617B6800221A637B682022C7
:10266C0083F83D207B68002283F83E207B681B6C3E
:10267C0043F004027B681A647B68002283F83C20D8
:10268C00012300E0002318460C37BD4680BC704780
:10269C0080B586B000AF78607B68002B01D1012338
:1026AC0072E27B681B6803F00103002B00F087804B
:1026BC00924B5B6803F00C03042B0CD08F4B5B68C4
:1026CC0003F00C03082B12D18C4B5B6803F48033A2
:1026DC00B3F5803F0BD1894B1B6803F40033002BFF
:1026EC006CD07B685B68002B68D101234CE27B6863
:1026FC005B68B3F5803F06D1804B1B687F4A43F47F
:10270C00803313602EE07B685B68002B0CD17B4B15
:10271C001B687A4A23F480331360784B1B68774A22
:10272C0023F4802313601DE07B685B68B3F5A02F56
:10273C000CD1724B1B68714A43F4802313606F4BAE
:10274C001B686E4A43F4803313600BE06B4B1B68C1
:10275C006A4A23F480331360684B1B68674A23F47E
:10276C00802313607B685B68002B13D0FEF7E0FFBF
:10277C00386108E0FEF7DCFF02463B69D31A642B94
:10278C0001D9032300E25D4B1B6803F40033002BDB
:10279C00F0D014E0FEF7CCFF386108E0FEF7C8FF7C
:1027AC0002463B69D31A642B01D90323ECE1534B4A
:1027BC001B6803F40033002BF0D100E000BF7B68F2
:1027CC001B6803F00203002B63D04C4B5B6803F0D7
:1027DC000C03002B0BD0494B5B6803F00C03082B4C
:1027EC001CD1464B5B6803F48033002B16D1434B52
:1027FC001B6803F00203002B05D07B681B69012BBF
:10280C0001D00123C0E13D4B1B6823F0F8027B682B
:10281C005B69DB00394913430B603AE07B681B6949
:10282C00002B20D0364B01221A60FEF781FF386155
:10283C0008E0FEF77DFF02463B69D31A022B01D953
:10284C000323A1E12D4B1B6803F00203002BF0D0F6
:10285C002A4B1B6823F0F8027B685B69DB00274975
:10286C0013430B6015E0264B00221A60FEF760FF45
:10287C00386108E0FEF75CFF02463B69D31A022B75
:10288C0001D9032380E11D4B1B6803F00203002BCD
:10289C00F0D17B681B6803F00803002B3AD07B68EF
:1028AC009B69002B19D0174B01221A60FEF740FFD1
:1028BC00386108E0FEF73CFF02463B69D31A022B55
:1028CC0001D9032360E10D4B5B6A03F00203002B7B
:1028DC00F0D0012000F0CEFA1CE00A4B00221A6066
:1028EC00FEF726FF38610FE0FEF722FF02463B6938
:1028FC00D31A022B08D9032346E100BF0010024073
:10290C000000424280044242924B5B6A03F0020395
:10291C00002BE9D17B681B6803F00403002B00F04B
:10292C00A6800023FB758B4BDB6903F08053002BD7
:10293C000DD1884BDB69874A43F08053D361854BBB
:10294C00DB6903F08053BB60BB680123FB75824BD2
:10295C001B6803F48073002B18D17F4B1B687E4AD5
:10296C0043F480731360FEF7E3FE386108E0FEF772
:10297C00DFFE02463B69D31A642B01D9032303E122
:10298C00754B1B6803F48073002BF0D07B68DB68FD
:10299C00012B06D16F4B1B6A6E4A43F00103136285
:1029AC002DE07B68DB68002B0CD16A4B1B6A694AF3
:1029BC0023F001031362674B1B6A664A23F004037E
:1029CC0013621CE07B68DB68052B0CD1614B1B6A26
:1029DC00604A43F0040313625E4B1B6A5D4A43F08A
:1029EC00010313620BE05B4B1B6A5A4A23F0010391
:1029FC001362584B1B6A574A23F0040313627B681B
:102A0C00DB68002B15D0FEF793FE38610AE0FEF769
:102A1C008FFE02463B69D31A41F28832934201D9A8
:102A2C000323B1E04B4B1B6A03F00203002BEED0E7
:102A3C0014E0FEF77DFE38610AE0FEF779FE0246EF
:102A4C003B69D31A41F28832934201D903239BE0AC
:102A5C00404B1B6A03F00203002BEED1FB7D012BD4
:102A6C0005D13C4BDB693B4A23F08053D3617B6837
:102A7C00DB69002B00F08780364B5B6803F00C039E
:102A8C00082B61D07B68DB69022B46D1334B0022CB
:102A9C001A60FEF74DFE386108E0FEF749FE02466B
:102AAC003B69D31A022B01D903236DE0294B1B6818
:102ABC0003F00073002BF0D17B681B6AB3F5803FE9
:102ACC0008D1244B5B6823F400327B689B68214956
:102ADC0013434B601F4B5B6823F474127B68196AB9
:102AEC007B685B6A0B431B4913434B601B4B0122F6
:102AFC001A60FEF71DFE386108E0FEF719FE02466B
:102B0C003B69D31A022B01D903233DE0114B1B68FF
:102B1C0003F00073002BF0D035E0104B00221A604C
:102B2C00FEF706FE386108E0FEF702FE02463B693E
:102B3C00D31A022B01D9032326E0064B1B6803F0A2
:102B4C000073002BF0D11EE07B68DB69012B07D1F1
:102B5C00012319E000100240007000406000424266
:102B6C000B4B5B68FB60FB6803F480327B681B6A71
:102B7C009A4206D1FB6803F470127B685B6A9A4236
:102B8C0001D0012300E0002318461837BD4680BD54
:102B9C000010024080B584B000AF786039607B686B
:102BAC00002B01D10123D0E06A4B1B6803F0070313
:102BBC003A689A4210D9674B1B6823F007026549A3
:102BCC003B6813430B60634B1B6803F007033A68C5
:102BDC009A4201D00123B8E07B681B6803F0020322
:102BEC00002B20D07B681B6803F00403002B05D05E
:102BFC00594B5B68584A43F4E06353607B681B682D
:102C0C0003F00803002B05D0534B5B68524A43F486
:102C1C0060535360504B5B6823F0F0027B689B68F9
:102C2C004D4913434B607B681B6803F00103002B79
:102C3C0040D07B685B68012B07D1474B1B6803F4C2
:102C4C000033002B15D101237FE07B685B68022BDE
:102C5C0007D1414B1B6803F00073002B09D10123F2
:102C6C0073E03D4B1B6803F00203002B01D10123E1
:102C7C006BE0394B5B6823F003027B685B68364979
:102C8C0013434B60FEF754FDF8600AE0FEF750FD6D
:102C9C000246FB68D31A41F28832934201D90323CE
:102CAC0053E02D4B5B6803F00C027B685B689B0068
:102CBC009A42EBD1274B1B6803F007033A689A4200
:102CCC0010D2244B1B6823F0070222493B681343A4
:102CDC000B60204B1B6803F007033A689A4201D043
:102CEC00012332E07B681B6803F00403002B08D03F
:102CFC00194B5B6823F4E0627B68DB68164913436D
:102D0C004B607B681B6803F00803002B09D0124B47
:102D1C005B6823F460527B681B69DB000E4913432C
:102D2C004B6000F021F802460B4B5B681B0903F06B
:102D3C000F030A49CB5C22FA03F3094A1360094BCF
:102D4C001B681846FEF7B2FC002318461037BD4628
:102D5C0080BD00BF002002400010024070420008FD
:102D6C00140000201800002080B487B000AF0023AE
:102D7C00FB600023BB6000237B6100237B6000238E
:102D8C003B611E4B5B68FB60FB6803F00C03042B80
:102D9C0002D0082B03D027E0194B3B6127E0FB68DE
:102DAC009B0C03F00F03174AD35C7B60FB6803F4A6
:102DBC008033002B10D0114B5B685B0C03F00103CC
:102DCC00114AD35CBB607B680D4A03FB02F2BB6803
:102DDC00B2FBF3F37B6104E07B680C4A02FB03F368
:102DEC007B617B693B6102E0054B3B6100BF3B694A
:102DFC0018461C37BD4680BC704700BF001002400F
:102E0C0000127A00884200089842000800093D0030
:102E1C0080B400AF024B1B681846BD4680BC70479F
:102E2C001400002080B500AFFFF7F2FF0246054BFF
:102E3C005B681B0A03F007030349CB5C22FA03F31C
:102E4C00184680BD001002408042000880B500AFDB
:102E5C00FFF7DEFF0246054B5B68DB0A03F0070356
:102E6C000349CB5C22FA03F3184680BD00100240E4
:102E7C008042000880B485B000AF78600A4B1B68B4
:102E8C000A4AA2FB03235B0A7A6802FB03F3FB608A
:102E9C0000BFFB685A1EFA60002BF9D100BF00BFBF
:102EAC001437BD4680BC704714000020D34D62100F
:102EBC0080B582B000AF78607B68002B01D1012314
:102ECC0041E07B6893F83D30DBB2002B06D17B6888
:102EDC00002283F83C207868FEF7D0FA7B68022247
:102EEC0083F83D207B681A687B68043319461046CA
:102EFC0000F05CFA7B68012283F846207B68012293
:102F0C0083F83E207B68012283F83F207B680122F6
:102F1C0083F840207B68012283F841207B680122E2
:102F2C0083F842207B68012283F843207B680122CE
:102F3C0083F844207B68012283F845207B680122BA
:102F4C0083F83D20002318460837BD4680BD00009D
:102F5C0080B485B000AF78607B6893F83D30DBB20D
:102F6C00012B01D001233AE07B68022283F83D203B
:102F7C007B681B68DA687B681B6842F00102DA60C8
:102F8C007B681B68184A93420ED07B681B68B3F1B0
:102F9C00804F09D07B681B68144A934204D07B682D
:102FAC001B68134A934211D17B681B689B6803F022
:102FBC000703FB60FB68062B10D07B681B681A6844
:102FCC007B681B6842F001021A6007E07B681B6893
:102FDC001A687B681B6842F001021A6000231846CD
:102FEC001437BD4680BC7047002C014000040040E3
:102FFC000008004080B584B000AF78607B681B6827
:10300C00DB68FB607B681B681B69BB60BB6803F0FB
:10301C000203002B20D0FB6803F00203002B1BD013
:10302C007B681B686FF002021A617B6801221A77B9
:10303C007B681B689B6903F00303002B03D0786843
:10304C0000F098F905E0786800F08BF9786800F0EA
:10305C009AF97B6800221A77BB6803F00403002BF3
:10306C0020D0FB6803F00403002B1BD07B681B688B
:10307C006FF004021A617B6802221A777B681B6866
:10308C009B6903F44073002B03D0786800F072F94D
:10309C0005E0786800F065F9786800F074F97B68F1
:1030AC0000221A77BB6803F00803002B20D0FB68C2
:1030BC0003F00803002B1BD07B681B686FF0080221
:1030CC001A617B6804221A777B681B68DB6903F042
:1030DC000303002B03D0786800F04CF905E0786806
:1030EC0000F03FF9786800F04EF97B6800221A77FF
:1030FC00BB6803F01003002B20D0FB6803F0100317
:10310C00002B1BD07B681B686FF010021A617B6868
:10311C0008221A777B681B68DB6903F44073002B69
:10312C0003D0786800F026F905E0786800F019F90A
:10313C00786800F028F97B6800221A77BB6803F0E6
:10314C000103002B0CD0FB6803F00103002B07D00C
:10315C007B681B686FF001021A617868FDF728FE26
:10316C00BB6803F08003002B0CD0FB6803F08003DA
:10317C00002B07D07B681B686FF080021A6178689F
:10318C0000F07FFABB6803F04003002B0CD0FB6807
:10319C0003F04003002B07D07B681B686FF04002E4
:1031AC001A61786800F0F8F8BB6803F02003002B74
:1031BC000CD0FB6803F02003002B07D07B681B6846
:1031CC006FF020021A61786800F052FA00BF1037D5
:1031DC00BD4680BD80B584B000AF786039600023F7
:1031EC00FB737B6893F83C30012B01D10223B4E0D4
:1031FC007B68012283F83C207B68022283F83D2007
:10320C007B681B689B68BB60BB6823F07703BB6063
:10321C00BB6823F47F43BB607B681B68BA689A6009
:10322C003B681B68B3F5005F3ED0B3F5005F00F25E
:10323C008780B3F5805F00F08680B3F5805F7FD820
:10324C00702B1AD0702B7BD8602B50D0602B77D87A
:10325C00502B3CD0502B73D8402B58D0402B6FD8D0
:10326C00302B64D0302B6BD8202B60D0202B67D820
:10327C00002B5CD0102B5AD062E07B6818683B683E
:10328C0099683B685A683B68DB6800F074F97B68A6
:10329C001B689B68BB60BB6843F07703BB607B68B3
:1032AC001B68BA689A604FE07B6818683B6899683D
:1032BC003B685A683B68DB6800F05DF97B681B680B
:1032CC009A687B681B6842F480429A603CE07B6899
:1032DC0018683B6859683B68DB681A4600F0D4F8FC
:1032EC007B681B685021184600F02BF92CE07B689A
:1032FC0018683B6859683B68DB681A4600F0F2F8BE
:10330C007B681B686021184600F01BF91CE07B6889
:10331C0018683B6859683B68DB681A4600F0B4F8DB
:10332C007B681B684021184600F00BF90CE07B68A9
:10333C001A683B681B681946104600F002F903E056
:10334C000123FB7300E000BF7B68012283F83D2062
:10335C007B68002283F83C20FB7B18461037BD4667
:10336C0080BD80B483B000AF786000BF0C37BD4621
:10337C0080BC704780B483B000AF786000BF0C375E
:10338C00BD4680BC704780B483B000AF786000BF8E
:10339C000C37BD4680BC704780B483B000AF7860FA
:1033AC0000BF0C37BD4680BC7047000080B485B0B0
:1033BC0000AF786039607B681B68FB607B682F4AC4
:1033CC0093420BD07B68B3F1804F07D07B682C4ABB
:1033DC00934203D07B682B4A934208D1FB6823F0BD
:1033EC007003FB603B685B68FA681343FB607B68A7
:1033FC00224A93420BD07B68B3F1804F07D07B6895
:10340C001F4A934203D07B681E4A934208D1FB6843
:10341C0023F44073FB603B68DB68FA681343FB6082
:10342C00FB6823F080023B685B691343FB607B689D
:10343C00FA681A603B689A687B68DA623B681A68BB
:10344C007B689A627B680D4A934203D13B681A6988
:10345C007B681A637B6801225A617B681B6903F0E5
:10346C000103002B05D07B681B6923F001027B68EC
:10347C001A6100BF1437BD4680BC7047002C014058
:10348C00000400400008004080B487B000AFF86032
:10349C00B9607A60FB681B6A7B61FB681B6A23F06E
:1034AC000102FB681A62FB689B693B613B6923F074
:1034BC00F0033B617B681B013A6913433B617B69F9
:1034CC0023F00A037B617A69BB6813437B61FB6859
:1034DC003A699A61FB687A691A6200BF1C37BD466B
:1034EC0080BC704780B487B000AFF860B9607A6078
:1034FC00FB681B6A7B61FB681B6A23F01002FB688C
:10350C001A62FB689B693B613B6923F470433B6126
:10351C007B681B033A6913433B617B6923F0A0036F
:10352C007B61BB681B017A6913437B61FB683A6959
:10353C009A61FB687A691A6200BF1C37BD4680BC71
:10354C00704780B485B000AF786039607B689B6849
:10355C00FB60FB6823F07003FB603A68FB68134365
:10356C0043F00703FB607B68FA689A6000BF14376E
:10357C00BD4680BC704780B487B000AFF860B960BE
:10358C007A603B60FB689B687B617B6923F47F43BB
:10359C007B613B681A027B681A43BB6813437A69E8
:1035AC0013437B61FB687A699A6000BF1C37BD4688
:1035BC0080BC704780B485B000AF786039607B68A0
:1035CC0093F83C30012B01D1022346E07B680122A9
:1035DC0083F83C207B68022283F83D207B681B68C3
:1035EC005B68FB607B681B689B68BB60FB6823F0B7
:1035FC007003FB603B681B68FA681343FB607B68D5
:10360C001B68FA685A607B681B68164A93420ED096
:10361C007B681B68B3F1804F09D07B681B68124A2A
:10362C00934204D07B681B68104A93420CD1BB6850
:10363C0023F08003BB603B685B68BA681343BB60D4
:10364C007B681B68BA689A607B68012283F83D200E
:10365C007B68002283F83C20002318461437BD46B3
:10366C0080BC7047002C0140000400400008004062
:10367C0080B483B000AF786000BF0C37BD4680BC0F
:10368C00704780B483B000AF786000BF0C37BD4684
:10369C0080BC704780B582B000AF78607B68002B2F
:1036AC0001D1012342E07B6893F84130DBB2002B5F
:1036BC0006D17B68002283F840207868FDF702FF72
:1036CC007B68242283F841207B681B68DA687B685E
:1036DC001B6822F40052DA60786800F02BF87B68E3
:1036EC001B681A697B681B6822F490421A617B681C
:1036FC001B685A697B681B6822F02A025A617B6836
:10370C001B68DA687B681B6842F40052DA607B68DD
:10371C0000225A647B68202283F841207B68202297
:10372C0083F842207B6800225A630023184608372E
:10373C00BD4680BD80B584B000AF78607B681B68E7
:10374C001B6923F440517B68DA687B681B680A4369
:10375C001A617B689A687B681B691A437B685B6992
:10376C001343BB607B681B68DB6823F4B05323F006
:10377C000C037A681268B9680B43D3607B681B68CA
:10378C005B6923F440717B689A697B681B680A4308
:10379C005A617B681B682C4A934203D1FFF756FB96
:1037AC00F86002E0FFF73EFBF860FA6813469B00F6
:1037BC0013449A001A447B685B689B00B2FBF3F3DA
:1037CC00224AA2FB03235B091901FA6813469B00EA
:1037DC0013449A001A447B685B689B00B2FBF3F2BB
:1037EC001A4BA3FB02035B09642000FB03F3D31AFF
:1037FC001B013233154AA2FB03235B0903F0F003D0
:10380C001944FA6813469B0013449A001A447B68C7
:10381C005B689B00B2FBF3F20C4BA3FB02035B094E
:10382C00642000FB03F3D31A1B013233074AA2FBBB
:10383C0003235B0903F00F027B681B680A449A6040
:10384C0000BF1037BD4680BD003801401F85EB51CD
:10385C00024B0146186800F02DB800BF2000002074
:10386C00024B0146186800F015B900BF200000207B
:10387C0070B50F4E0C463168054611B900F0CEF804
:10388C0030602146284600F0C9F8431C03D14FF0A4
:10389C00FF34204670BDC41C24F00304A042F8D0B1
:1038AC00211A284600F0BAF80130F2D1EFE700BF38
:1038BC00940100202DE9F843CD1C25F003050835B3
:1038CC000C2D38BF0C25002D064601DBA94204D96E
:1038DC000C2333600020BDE8F883DFF8D48000F0BF
:1038EC0069F8D8F800301C4644BB29463046FFF72F
:1038FC00BFFF431C044658D1D8F800402746002F80
:10390C0043D1002C4BD023683946304604EB0309D5
:10391C0000F084F8814542D1216830466D1A294661
:10392C00FFF7A6FF01303AD023682B442360D8F868
:10393C0000305A6862BBC8F800700FE02268521B56
:10394C0020D40B2A17D96119A342256018BF5960DE
:10395C00636808BFC8F8001062514B60304600F035
:10396C002FF804F10B00231D20F00700C21A1CBF16
:10397C001B1AA350AFE76268A3420CBFC8F8002023
:10398C005A60EBE723466468AEE73C467F68B6E7CF
:10399C001A465B68A342FBD100235360DEE70C237D
:1039AC003046336000F00CF894E70560D6E700BFB2
:1039BC0098010020014800F06BB800BFD80200202D
:1039CC00014800F066B800BFD80200200EB46FF0BA
:1039DC00004100B59CB01DAB02900690079104917C
:1039EC000848094953F8042B0591006802A9019372
:1039FC0000F0F4F80022029B1A701CB05DF804EB86
:103A0C0003B07047200000200802FFFF0346024469
:103A1C00934200D1704703F8011BF9E738B5002336
:103A2C00054D044608462B60FDF7C8FD431C02D12A
:103A3C002B6803B1236038BDD4020020014B1868F9
:103A4C00704700BF2000002070B500260C4D0D4CB7
:103A5C00641BA410A64209D100F0BAFB00260A4D43
:103A6C000A4C641BA410A64205D170BD55F8043B4A
:103A7C0098470136EEE755F8043B98470136F2E7D4
:103A8C00D0420008D0420008D0420008D4420008BE
:103A9C007047704738B50546002940D051F8043CB2
:103AAC000C1F002BB8BFE418FFF784FF1C4A1368E7
:103ABC0033B9636014602846BDE83840FFF780BF17
:103ACC00A34208D9206821188B4201BF19685B6892
:103ADC0009182160EDE71A465B680BB1A342FAD9CD
:103AEC0011685018A0420BD1206801445018834231
:103AFC001160E0D118685B68084410605360DAE725
:103B0C0002D90C232B60D6E7206821188B4201BF09
:103B1C0019685B680918216063605460CBE738BD95
:103B2C00980100202DE9F0471F468E688246BE4260
:103B3C000C4690460B682DD8B1F90C2012F4906FFE
:103B4C0026D06569096905EB4505A3EB010905EB71
:103B5C00D5757B1C4B446D109D4238BF1D465305DB
:103B6C0027D52946FFF7A6FE064660B34A462169CB
:103B7C0000F0EAFAA38923F4906343F08003A38155
:103B8C0026614E4426603E466561A5EB0905A5609D
:103B9C00BE4200D93E4632464146206800F0ACFA9F
:103BAC000020A3689B1BA360236833442360BDE8FB
:103BBC00F0872A4600F0D6FA06460028E0D1504697
:103BCC002169FFF767FF0C23CAF80030A3894FF077
:103BDC00FF3043F04003A381E9E700002DE9F04FEB
:103BEC0098468B8907461B060D4614469DB010D58A
:103BFC000B6973B94021FFF75DFE2860286130B96D
:103C0C000C233B604FF0FF301DB0BDE8F08F40231C
:103C1C006B610023099320238DF8293030234FF05A
:103C2C000109CDF80C80DFF898818DF82A302346F5
:103C3C009A4613F8012B0AB1252AF9D1BAEB040BD9
:103C4C000BD05B46224629463846FFF76BFF013006
:103C5C0000F0A780099A5A4409929AF80030002B78
:103C6C0000F09F8000234FF0FF32CDE905230AF1CD
:103C7C00010A049307938DF853301A935446052286
:103C8C0014F8011B4E4800F051FA049AD8B9D0062A
:103C9C0044BF20238DF85330110744BF2B238DF8DC
:103CAC0053309AF800302A2B15D0544600204FF090
:103CBC000A0C079A214611F8013B303B092B4BD9D2
:103CCC00B0B1079214E0A0EB080309FA03F3134315
:103CDC00A2460493D2E7039B191D1B680391002B8A
:103CEC00BBBF5B4242F0020207930793B8BF04923A
:103CFC0023782E2B0AD163782A2B32D1039B0234E2
:103D0C001A1D1B68039243EAE3730593DFF8B4A012
:103D1C0003225046217800F009FA38B14022049B66
:103D2C00A0EB0A00824013430134049314F8011BE6
:103D3C00062225488DF8281000F0F8F9002836D016
:103D4C00224B1BBB039B073323F00703083303935E
:103D5C00099B334409936AE70C4601200CFB0232A1
:103D6C00A8E700234FF00A0C1946013405932046AE
:103D7C0010F8012B303A092A03D9002BC6D0059133
:103D8C00C4E7044601230CFB0121F0E703AB0093CD
:103D9C002A4638460E4B04A9AFF30080421C064657
:103DAC00D6D1AB895B063FF52DAF09982CE703AB59
:103DBC0000932A463846064B04A900F07DF8EDE73F
:103DCC009A420008A0420008A4420008000000002B
:103DDC00313B00082DE9F047164698468A680B6976
:103DEC0007469342B8BF1346336091F843200C4604
:103DFC00DDF820900AB1013333602368990642BF85
:103E0C00336802333360256815F0060506D104F1DA
:103E1C00190AE36832689B1AAB422BDC94F84330E6
:103E2C002268003B18BF0123920630D44146384625
:103E3C0004F14302C847013023D02368226903F000
:103E4C000603042B14BF002533684FF0000608BF8F
:103E5C00E56804F11A0408BFED1A54F8123C08BFC7
:103E6C0025EAE5759342C4BF9B1AED18B5421AD1E9
:103E7C00002008E00123524641463846C84701302D
:103E8C0003D14FF0FF30BDE8F0870135C1E730209A
:103E9C00E11881F843005A1C94F84510224402336F
:103EAC0082F84310C2E70123224641463846C847F0
:103EBC000130E6D00136D9E72DE9FF470F7E914658
:103ECC00782F80460C469A460C9E01F1430207D887
:103EDC00622F0AD8002F00F0D380582F00F0BA8040
:103EEC0004F1420684F842703AE0A7F16303152B03
:103EFC00F6D801A151F823F05D3F0008713F00088E
:103F0C00ED3E0008ED3E0008ED3E0008ED3E0008D9
:103F1C00713F0008ED3E0008ED3E0008ED3E000844
:103F2C00ED3E0008734000089B3F00082D40000840
:103F3C00ED3E0008ED3E000895400008ED3E0008FF
:103F4C009B3F0008ED3E0008ED3E000835400008A0
:103F5C0033681A1D1B68326004F1420684F8423043
:103F6C0001239EE033682068191D3160060601D5D7
:103F7C001D6803E04506FBD5B3F90050002D03DAAC
:103F8C002D236D4284F843300A23594811E02168EF
:103F9C003368080653F8045B02D4490648BFADB237
:103FAC006F2F336014BF0A2308235148002184F873
:103FBC0043106668002EA8BF2168A660A4BF21F03C
:103FCC00040121600DB9002E4BD01646B5FBF3F160
:103FDC0003FB1157C75D06F8017D2F46BB420D460A
:103FEC00F4D9082B0BD12368DF0708D52369616846
:103FFC009942DEBF302306F8013C06F1FF36921BD6
:10400C0022614B4621464046CDF800A003AAFFF79B
:10401C00E1FE01304AD14FF0FF3004B0BDE8F0872B
:10402C00236843F0200323607827324884F84570D6
:10403C00236831681F0651F8045B02D45F0648BF41
:10404C00ADB23160D90744BF43F0200323601DB1EA
:10405C001023ABE72648E9E7236823F0200323600D
:10406C00F6E71646BDE733682568181D61693060B0
:10407C002E061B6801D5196002E06806FBD5198075
:10408C00002316462361BCE7336800211A1D3260F9
:10409C001E686268304600F049F808B1801B606009
:1040AC0063682361002384F84330AAE7324649460B
:1040BC0040462369D0470130ADD023689B0713D409
:1040CC00E068039B9842B8BF1846A6E70123324626
:1040DC0049464046D04701309DD00135E3680399ED
:1040EC005B1AAB42F2DCEBE7002504F11906F5E7AD
:1040FC00AB420008BC420008884210B501EB020438
:10410C0002D98442234607D8431EA14208D011F895
:10411C00012B03F8012FF8E7014602448A4200D133
:10412C0010BD13F8014D02F8014DF7E7034610B529
:10413C00C9B202449342184601D1002003E004782E
:10414C0001338C42F6D110BD0A44914200F1FF3389
:10415C0000D1704710B511F8014B914203F8014F93
:10416C00F9D110BD2DE9F041804615460C4621B918
:10417C001146BDE8F041FFF79DBB2AB9FFF78AFC59
:10418C0000242046BDE8F08100F01AF8854206466E
:10419C0002D8B5EB500FF4D829464046FFF78AFBFE
:1041AC0007460028ECD0B5422A46214628BF3246A5
:1041BC00FFF7CAFF21464046FFF76CFC3C46E0E7A0
:1041CC0051F8043C181F002BBCBF0B58C01870478B
:1041DC00F8B500BFF8BC08BC9E467047F8B500BFE8
:0841EC00F8BC08BC9E467047B8
:1041F4002564000052000000470000004100000058
:10420400554E4B4E4F574E004D4F4445203A20419A
:1042140055544F0025732025640000004D4F44453C
:10422400203A204D414E55414C000000313A2025A2
:1042340073000000323A2025730000004D4F4445BE
:10424400203A2054554E494E47000000257320540F
:10425400494D453A20256400000000004D4F444577
:10426400203A20554E4B4E4F574E000000000000A0
:104274000000000001020304060708090000000012
:104284000102030402030405060708090A0B0C0DC6
:104294000E0F10100102232D302B2000686C4C00EF
:1042A4006566674546470030313233343536373832
:1042B4003941424344454600303132333435363790
:0C42C40038396162636465660000000028
:0442D00031010008B0
:0442D4000D010008D0
:1042D80001010100001000200040008001050203D8
:1042E8000101010000127A00100000000100000026
:1042F80024000020000000009C010020040200208F
:104308006C02002000000000000000000000000017
:104318000000000000000000000000000000000095
:104328000000000000000000000000000000000085
:104338000000000000000000000000000000000075
:040000050800164198
:00000001FF
